:100000000C94341F0C94651F0C94651F0C94651F91
:100010000C94651F0C94651F0C94651F0C94651F50
:100020000C94651F0C94651F0C94651F0C94651F40
:100030000C94651F0C9438600C94651F0C94651F1C
:100040000C94651F0C9407DD0C94651F0C94651FC0
:100050000C94651F0C94651F0C9449840C94DE610C
:100060000C94651F0C946B3E0C94651F0C94651FDB
:100070000C94651F0C94651F0C94651F0C94651FF0
:100080000C94651F0C94651F0C94651F0C94651FE0
:100090000C94651F0C94651F0C94651F0C94651FD0
:1000A0000C94651F0C94651F0C94651F0C94651FC0
:1000B0000C94651F0C94651F0C94651F0C94651FB0
:1000C0000C94651F0C94651F0C94651F0C94651FA0
:1000D0000C94651F0C94651F0C94651F0C94651F90
:1000E0000C94651F825E855E745E785E7E5EBC5E8B
:1000F000895E8D5E935E975E9B5EA15EA55EA95E46
:10010000BC5EAF5EB35EB75EFA60FF6004610E6115
:100110001861916122612A6132613C6146615061DE
:100120005F616961916173617D618761A584B38459
:10013000CF84DD84F78405851F8523852B85AAC898
:10014000AAC8B5C8B5C8B5C8C0C8C0C8C0C8F8C86E
:10015000EEC8EEC8EEC8084AD73B3BCE016E84BC61
:10016000BFFDC12F3D6C74319ABD56833DDA3D0011
:10017000C77F11BED9E4BB4C3E916BAAAABE00005A
:1001800000803F05A84CCDB2D44EB93836A9020C38
:1001900050B9918688083CA6AAAA2ABE0000008011
:1001A0003F004E414E494E495459494E46CDCCCC64
:1001B0003D0AD7233C17B7D13877CC2B329595E63B
:1001C000241FB14F0A000020410000C84200401C1B
:1001D0004620BCBE4CCA1B0E5AAEC59D742F0053A0
:1001E00044207072696E74696E672062797465204C
:1001F000004E6F74205344207072696E74696E678C
:10020000002E0044656C6574696F6E206661696CD0
:1002100065642C2046696C653A200046696C65204F
:1002200064656C657465643A002E006F70656E20BD
:100230006661696C65642C2046696C653A200050E3
:100240004944204175746F74756E652066696E69E6
:1002500073686564212050757420746865204B7044
:100260002C204B6920616E64204B6420636F6E7399
:1002700074616E747320696E746F20436F6E66696B
:100280006775726174696F6E2E6800504944204131
:1002900075746F74756E65206661696C6564212084
:1002A00074696D656F75740020403A006F6B20545F
:1002B0003A006F6B20423A00504944204175746FF8
:1002C00074756E65206661696C6564212054656D86
:1002D000706572617475726520746F6F20686967EC
:1002E0006800204B643A2000204B693A2000204BE4
:1002F000703A200020436C617369632050494420A8
:10030000002054753A2000204B753A2000206D6182
:10031000783A2000206D696E3A200020643A20006F
:1003200020626961733A20002200556E6B6E6F7710
:100330006E20636F6D6D616E643A202200436861C8
:100340006E67652066696C616D656E74006C6364D0
:1003500020636F6E74726173742076616C75653A98
:1003600020007A5F6D696E3A2000795F6D696E3AA0
:100370002000785F6D696E3A20005A3A00593A00C1
:1003800020436F756E7420583A2000453A005A3A5F
:1003900000593A00583A004649524D574152455F7C
:1003A0004E414D453A4D61726C696E2056312E308A
:1003B0002E302E313B205374616E6461726420567E
:1003C000322E30204649524D574152455F55524CCE
:1003D0003A68747470733A2F2F636F64652E616C82
:1003E0006570686F626A656374732E636F6D2F64E6
:1003F0006966667573696F6E2F4D41524C494E2F79
:100400002050524F544F434F4C5F56455253494F23
:100410004E3A312E30204D414348494E455F5459A4
:1004200050453A54415A2045585452554445525F1C
:10043000434F554E543A3120555549443A6333326F
:1004400035356339362D343039372D343838342D3D
:10045000386564302D64656432666639626165367C
:10046000310A0054415A204F66662E0054415A20EA
:1004700052656164792E0042656420646F6E652E5A
:100480000020423A0020453A00543A004265642078
:1004900048656174696E672E0048656174696E67AE
:1004A00020646F6E652E0020573A0020453A0054B4
:1004B0003A0048656174696E672E2E2E0020424016
:1004C0003A0020403A00202F003A00205400202F0C
:1004D0000020423A00202F006F6B20543A0025691B
:1004E000206D696E2C2025692073656300456E645C
:1004F0002066696C65206C69737400426567696E7B
:100500002066696C65206C697374004E6F206D6F96
:1005100076652E00526573756D696E67207072691D
:100520006E74005761697420666F7220757365720E
:100530002E2E2E00536C6565702E2E2E000000218D
:1005400000240027002A002D0030003300010100A4
:1005500000040107010A012020506C616E6E657273
:1005600042756666657242797465733A200020466A
:10057000726565204D656D6F72793A20004D617925
:10058000203238203230323000436F6D70696C6534
:10059000643A200028416C657068204F626A656388
:1005A00074732C20496E632C2054415A2020636FB1
:1005B0006E6669672900207C20417574686F723A05
:1005C00020004D61792032382032303230203139EC
:1005D0003A34383A323000204C61737420557064DC
:1005E000617465643A2000312E302E302E31004D7A
:1005F00061726C696E200020536F6674776172655A
:1006000020526573657400205761746368646F6776
:10061000205265736574002042726F776E206F758B
:1006200074205265736574002045787465726E613C
:100630006C20526573657400506F77657255700059
:100640007374617274004D383420582059205A2038
:1006500045006563686F3A00256920686F7572739D
:10066000202569206D696E7574657300446F6E6531
:10067000207072696E74696E672066696C650053DC
:10068000544F505045442E20005072696E7465726C
:100690002073746F707065642064756520746F20BA
:1006A0006572726F72732E204669782074686520B7
:1006B0006572726F7220616E6420757365204D39AA
:1006C000393920746F20726573746172742E20281A
:1006D00054656D70657261747572652069732072FE
:1006E000657365742E205365742069742061667487
:1006F00065722072657374617274696E6729006F28
:100700006B004E6F204C696E65204E756D62657290
:10071000207769746820636865636B73756D2C203E
:100720004C617374204C696E653A20004E6F204313
:100730006865636B73756D2077697468206C696E8A
:1007400065206E756D6265722C204C617374204C4F
:10075000696E653A2000636865636B73756D206D23
:1007600069736D617463682C204C617374204C69EB
:100770006E653A20004C696E65204E756D6265723B
:10078000206973206E6F74204C617374204C696E05
:1007900065204E756D6265722B312C204C6173742F
:1007A000204C696E653A20004572726F723A004DB6
:1007B000313130006572726F722077726974696EC0
:1007C0006720746F2066696C6500656E6473746F72
:1007D0007073206869743A205A00205A3A00656E96
:1007E0006473746F7073206869743A2059002059DB
:1007F0003A00656E6473746F7073206869743A2090
:10080000580020583A00656E6473746F70732068E6
:1008100069743A20006563686F3A00446F6E652022
:10082000736176696E672066696C652E006F6B0078
:100830004D32390053657474696E67732053746F59
:10084000726564002044002049002020204D333090
:10085000312050005049442073657474696E677389
:100860003A00205A0020590020204D3230362058BE
:1008700000486F6D65206F666673657420286D6D26
:10088000293A00204500205A00205800204200202C
:10089000540020204D323035205300416476616E83
:1008A000636564207661726961626C65733A205396
:1008B0003D4D696E20666565647261746520286DC2
:1008C0006D2F73292C20543D4D696E207472617612
:1008D000656C20666565647261746520286D6D2F96
:1008E00073292C20423D6D696E696D756D207365AD
:1008F000676D656E742074696D6520286D73292C91
:1009000020583D6D6178696D756D205859206A6574
:10091000726B20286D6D2F73292C20205A3D6D613C
:1009200078696D756D205A206A65726B20286D6D2F
:100930002F73292C2020453D6D6178696D756D20E0
:1009400045206A65726B20286D6D2F732900205435
:100950000020204D323034205300416363656C65C4
:10096000726174696F6E3A20533D616363656C65B3
:10097000726174696F6E2C20543D7265747261638C
:100980007420616363656C65726174696F6E0020C9
:100990004500205A0020590020204D323031205887
:1009A000004D6178696D756D20416363656C65729A
:1009B0006174696F6E20286D6D2F7332293A0020A3
:1009C0004500205A0020590020204D323033205855
:1009D000004D6178696D756D20666565647261743E
:1009E000657320286D6D2F73293A00204531002052
:1009F0004500205A0020590020204D39322058004F
:100A000053746570732070657220756E69743A0056
:100A100053746F7265642073657474696E677320B4
:100A20007265747269657665640048617264636FAB
:100A30006465642044656661756C742053657474E4
:100A4000696E6773204C6F61646564006563686FED
:100A50003A002200656E717565696E67202200009C
:100A60000095430080894300007A430000000000A5
:100A70000000000000000000000000000000000076
:100A80000000004D3234004D323320257300F92E22
:100A90002E004D61696E00436172642072656D6F56
:100AA000766564004361726420696E736572746573
:100AB000640000060900FE070199032B20FFFE08D1
:100AC000FE07FE0000000600000107070602008086
:100AD000808080800080030303060104A0A0A0059D
:100AE00007070600005050F850F850500507070659
:100AF00000002070A070287020050707060000483D
:100B0000A8502050A89005070706000040A0A0406C
:100B1000A89068010303060204808080030707068B
:100B200001002040808080402003070706010080EC
:100B30004020202040800505050600018850F8501F
:100B4000880505050600012020F820200303030680
:100B500001FF604080050101060003F8030303065E
:100B600001FF40E04005070706000008081020408C
:100B700080800507070600002050888888502005DF
:100B800007070600002060A0202020F805070706C0
:100B90000000708808304080F8050707060000F85C
:100BA00008103008887005070706000010305090C4
:100BB000F81010050707060000F880B0C808887014
:100BC000050707060000304080B0C8887005070799
:100BD000060000F808101020404005070706000036
:100BE00070888870888870050707060000708898EC
:100BF000680810600307070601FF40E0400040E07E
:100C0000400307070601FF40E04000604080040702
:100C10000706010010204080402010050303060055
:100C200002F800F804070706010080402010204069
:100C300080050707060000708810202000200507A7
:100C400007060000708898A8B080700507070600A6
:100C50000020508888F88888050707060000F048BB
:100C600048704848F00507070600007088808080BB
:100C70008870050707060000F04848484848F00516
:100C80000707060000F88080F08080F80507070657
:100C90000000F88080F08080800507070600007063
:100CA000888080988870050707060000888888F883
:100CB000888888030707060100E04040404040E084
:100CC0000507070600003810101010906005070790
:100CD0000600008890A0C0A09088050707060000C5
:100CE000808080808080F80507070600008888D80B
:100CF000A88888880507070600008888C8A89888FB
:100D000088050707060000708888888888700507AE
:100D100007060000F08888F080808005080806003B
:100D2000FF7088888888A87008050707060000F00B
:100D30008888F0A0908805070706000070888070FA
:100D4000088870050707060000F8202020202020D2
:100D500005070706000088888888888870050707C7
:100D600006000088888850505020050707060000BC
:100D7000888888A8A8D888050707060000888850B2
:100D8000205088880507070600008888502020200A
:100D900020050707060000F80810204080F8030728
:100DA00007060100E08080808080E00507070600DC
:100DB0000080804020100808030707060100E0209B
:100DC00020202020E00503030600042050880501B0
:100DD000010600FFF8020202060206804005050532
:100DE00006000070087888780507070600008080F4
:100DF000B0C888C8B00505050600007088808870F6
:100E00000507070600000808689888986805050522
:100E10000600007088F8807005070706000030485B
:100E200040F04040400507070600FE7888887808B3
:100E300088700507070600008080B0C8888888038E
:100E400007070601004000C0404040E004090906D1
:100E500001FE10003010101090906005070706008A
:100E60000080808890E09088030707060100C0405A
:100E700040404040E0050505060000D0A8A8A8882D
:100E8000050505060000B0C8888888050505060028
:100E90000070888888700507070600FEB0C888C8FB
:100EA000B080800507070600FE68988898680808E3
:100EB000050505060000B0C8808080050505060010
:100EC0000070807008F00507070600004040F04001
:100ED00040483005050506000088888898680505A3
:100EE000050600008888505020050505060000888A
:100EF00088A8A850050505060000885020508805E0
:100F000007070600FE8888986808887005050506AA
:100F10000000F8102040F8040707060100304020C8
:100F2000C02040300107070602008080808080805A
:100F300080040707060100C02040304020C00503A0
:100F40000306000448A89000000001000000000013
:100F5000010000000000010000000000010000008E
:100F6000000001000000000001000000000001007E
:100F7000000000000100000000000100000000006F
:100F8000010000000000010000000000010000005E
:100F9000000001000000000001000000000001004E
:100FA000000000000100000000000100000000003F
:100FB000010000000000010000000000010000002E
:100FC000000001000000000001000000000001001E
:100FD000000000000100000000000100000000000F
:100FE00001000000000001000000000001000000FE
:100FF00000000100000000000100000000000100EE
:1010000000000000010000000000010000000000DE
:1010100006000001070706020080008080808080B3
:101020000507070600FF2078A0A0A0782005070785
:10103000060000304840E04048B0050505060000C5
:1010400088705070880508080600FF88885020F8CE
:101050002020200107070602008080800080808019
:101060000508080600FF7080E0904838087003010A
:1010700001060107A00507070600007088A8C8A898
:1010800088700406060601017090B05000F0060555
:10109000050600002448904824040202060102F0DC
:1010A00010040101060103F005070706000070881F
:1010B000E8C8C88870050101060007F803030306A5
:1010C000010440A0400506060600002020F820206C
:1010D000F804050506010360902040F004050506AC
:1010E0000103E0106010E0020202060206408005E3
:1010F00006060600FF888888C8B080050707060036
:101100000078E8E868282828010101060203800227
:1011100002020602FE408003050506010340C040AE
:1011200040E00406060601016090906000F00605AC
:101130000506000090482448900609090600FF4073
:10114000C04040E40C143C040609090600FF40C0FE
:101150004040E81404081C0509090600FFC02040AF
:1011600020C818287808050707060000200020205E
:101170004088700508080600004020708888F888BC
:10118000880508080600001020708888F8888805FF
:1011900008080600002050708888F888880508082C
:1011A00006000048B0708888F8888805080806009E
:1011B000005000708888F88888050808060000201C
:1011C00050708888F888880607070600003C509011
:1011D0009CF0909C0509090600FE7088808080883C
:1011E00070204005080806000040F88080F08080EC
:1011F000F805080806000010F88080F08080F805E7
:10120000080806000020F88080F08080F8050808B3
:1012100006000050F88080F08080F803080806017E
:10122000008040E040404040E00308080601002004
:1012300040E040404040E003080806010040A0E0D4
:1012400040404040E0030808060100A000E04040A4
:101250004040E0050707060000F04848E84848F02D
:10126000050808060000285088C8A898888805083E
:1012700008060000402070888888887005080806E5
:101280000000102070888888887005080806000013
:10129000205070888888887005080806000028504B
:1012A00070888888887005080806000050007088DB
:1012B000888888700505050600008850205088053C
:1012C0000707060000709898A8C8C87005080806A7
:1012D000000040208888888888700508080600007B
:1012E000102088888888887005080806000020502B
:1012F00000888888887005080806000050008888E3
:10130000888888700508080600001020888850200A
:10131000202005070706000080F088F08080800507
:101320000707060000708890A09088B0050808069E
:101330000000402000700878887805080806000042
:1013400010200070087888780508080600002050F2
:10135000007008788878050808060000285000709A
:10136000087888780507070600005000700878881C
:101370007805080806000020502070087888780654
:10138000050506000078147C907C0507070600FE22
:101390007088808870204005080806000040200002
:1013A0007088F8807005080806000010200070881A
:1013B000F880700508080600002050007088F8804A
:1013C0007005070706000050007088F88070030859
:1013D00008060100804000C0404040E003080806C5
:1013E0000100408000C0404040E0030808060100C2
:1013F00040A000C0404040E0060A0A0600FEA4A843
:1014000000FC8480808084FC060A0A0600FE549456
:1014100000FC8404040484FC05080806000028502D
:1014200000B0C888888805080806000040200070C1
:1014300088888870040A0A0602FE304080909090E6
:1014400090909090040A0A0600FEC02010909090A0
:1014500090909090060707060001448C8C84804091
:101460003C06070706000188C4C4840408F005058B
:10147000050600012000F8002005080806000040CD
:10148000F0C88888987810050808060000E0F888F9
:1014900088888888F80505050600012030F8302086
:1014A0000508080600002070F820202020E005092B
:1014B000090600FF2070A8A8B888885020050909EF
:1014C0000600FFE080C0B0A8A8302828050909065A
:1014D00000FFF8A88888888888A8F8050A0A060006
:1014E000FE205050505088A8A888705900B02000A5
:1014F000B02000B02000B020002D2D3A2D2D00008E
:1015000000000000000000000000007FFFE000007D
:10151000000000000000000000007000E00000007B
:1015200000000000000000000061F8600000000002
:10153000000000000000000041F820000000000052
:101540000000000000000040F0200000000000004B
:1015500000000000000040602000000000000000CB
:1015600000000000005801A07F80003FC0003FC085
:10157000004104005C63A0FBC00079E00079E0005A
:101580002082005EF7A0F3C00076E00076E0002045
:1015900082005EF7A0EBC0007EE0007EE000410428
:1015A000005C63A07B80003DC00039C00082080061
:1015B0005801A07B80003BC0003EC00104100040E9
:1015C0006020FBC00077E00076E00104100040F0EE
:1015D00020FBC00070E00079E00082080041F820A4
:1015E000FFC0007FE0007FE00041040061F8603F41
:1015F00000001F80001F80000000007000E01E003F
:10160000000F00000F0001FFFF807FFFE00C0000D3
:10161000060000060001FFFF80000000000000003F
:1016200000000000000000007FFFE000000000005C
:10163000000000000000007000E00000000000005A
:10164000000000000000630C6000000000000000CB
:101650000000000000470E20000000000000000015
:10166000000000004F0F20000000000000000000FC
:101670000000005F0FA0000000000000000000005C
:1016800000005E07A07F80003FC0003FC000410413
:1016900000406020FBC00079E00079E0002082007B
:1016A00040F020F3C00076E00076E00020820040A9
:1016B000F020EBC0007EE0007EE0004104004060CE
:1016C000207B80003DC00039C0008208005E07A07A
:1016D0007B80003BC0003EC0010410005F0FA0FBF8
:1016E000C00077E00076E0010410004F0F20FBC03F
:1016F0000070E00079E000820800470E20FFC00083
:101700007FE0007FE000410400630C603F00001FA9
:1017100080001F80000000007000E01E00000F002D
:10172000000F0001FFFF807FFFE00C0000060000BB
:10173000060001FFFF800000004D3834205820597A
:10174000205A2045004E6F20436172640050726938
:101750006E742066726F6D2053440053746F702056
:101760005072696E7400526573756D6520507269B0
:101770006E74005061757365205072696E74004319
:101780006F6E66696775726174696F6E0054656D1E
:101790007065726174757265004D6F76656D656E0A
:1017A000740054756E6500496E666F2073637265D0
:1017B000656E004D363030004368616E67652066A7
:1017C000696C616D656E7400466C6F7700466C6F76
:1017D000770046616E2073706565640046616E2017
:1017E00073706565640042656400426564004E6F15
:1017F0007A7A6C65004E6F7A7A6C65005370656515
:1018000064005370656564004D61696E00000609EF
:1018100000FE06018902FE20FFFE07FE06FE000014
:101820000006000701060606020080808080008016
:10183000030303060103A0A0A00507070600FF504D
:1018400050F850F850500509090600FE2070A8A075
:101850007028A870200608080600FF40A84810203D
:101860004854080507070600FF609090609890684C
:101870000103030602038080800207070602FF407F
:101880008080808080400207070602FF8040404041
:101890004040800505050600008850F85088050581
:1018A000050600002020F820200204040602FEC0E5
:1018B000404080050101060002F802020206020013
:1018C000C0C00406060601001010204080800406F7
:1018D00006060100609090909060030606060100E5
:1018E00040C0404040E00406060601006090102021
:1018F00040F0040606060100F020601010E0050626
:101900000606000010305090F8100406060601008C
:10191000F080E01010E00406060601006080E09010
:101920009060040606060100F010102040400406F6
:1019300006060100609060909060040606060100B3
:10194000609090701060020505060200C0C000C0E3
:10195000C00207070602FEC0C000C0404080050567
:10196000050600001860806018050303060001F8F2
:1019700000F8050505060000C0300830C004070760
:101980000601006090106040004005060606000059
:101990007090A8B08070050606060000205088F8F8
:1019A0008888050606060000F088F08888F004069E
:1019B0000606010060908080906004060606010023
:1019C000E090909090E0040606060100F080E08030
:1019D00080F0040606060100F080E08080800406A6
:1019E00006060100609080B09060040606060100C3
:1019F0009090F0909090030606060100E040404071
:101A000040E005060606000038101010906004063D
:101A10000606010090A0C0A09090040606060100F2
:101A20008080808080F005060606000088D8A8A87F
:101A3000888804060606010090D0B09090900506B4
:101A40000606000070888888887004060606010073
:101A5000E09090E080800407070601FF609090D03E
:101A6000B06010040606060100E09090E09090043B
:101A700006060601006090402090600506060600FC
:101A800000F82020202020040606060100909090F7
:101A9000909060040606060100909090F06060054A
:101AA00006060600008888A8A8D88805060606004D
:101AB00000885020205088050606060000888850BF
:101AC000202020040606060100F010204080F003CC
:101AD0000606060100E080808080E004060606011C
:101AE00000808040201010030606060100E0202040
:101AF0002020E005030306000320508805010106AD
:101B000000FEF802020206020480400404040601FA
:101B100000709090700406060601008080E09090AE
:101B2000E0040404060100708080700406060601CB
:101B30000010107090907004040406010060B0C0A2
:101B400070040606060100205040E04040040606EE
:101B50000601FE6090907010600406060601008089
:101B600080E09090900306060601004000C04040CF
:101B7000E00308080601FE200060202020A04004A9
:101B800006060601008080A0C0A09003060606019C
:101B900000C040404040E0050404060000D0A8A872
:101BA00088040404060100E09090900404040601F7
:101BB00000609090600406060601FEE09090E080D0
:101BC000800406060601FE70909070101004040454
:101BD000060100A0D0808004040406010070C0301B
:101BE000E00406060601004040E0405020040404E2
:101BF000060100909090700404040601009090602B
:101C00006005040406000088A8A850040404060126
:101C100000906060900406060601FE90909070901F
:101C200060040404060100F02040F00307070601E9
:101C300000204040804040200107070602FF8080CE
:101C4000808080808003070706010080404020409C
:101C5000408004020206010350A0FFFFFFFFFFFFC8
:101C6000FFFFFFFFFFFFFFFFFFFFFFFFFFFFFFFF84
:101C7000FFFFFFFFFFFFFFFFFFFFFF000000060069
:101C800007010606060200800080808080040606A8
:101C90000601FF2070A0A070200507070600FF3096
:101CA0004840F04040F8050505060000A85088505F
:101CB000A80506060600008850F820F8200107074E
:101CC0000602FF808080008080800407070601FFF5
:101CD000708060906010E0030101060105A0060716
:101CE00007060000788494A494847803050506010F
:101CF0000160A06000E00505050600002850A05026
:101D000028040303060100F010100401010601027B
:101D1000F00607070600007884B4A4A484780401C0
:101D200001060105F0040303060102609060050747
:101D3000070600FF2020F8202000F8030505060113
:101D40000140A02040E0030505060101C02040201D
:101D5000C002020206020440800405050601FF904D
:101D600090B0D08005060606000078E8E8682828CC
:101D7000010101060202800202020602FE40800307
:101D8000050506010140C04040E0030505060101CC
:101D900040A04000E0050505060000A0502850A026
:101DA0000508080600FF40C0405070307810050854
:101DB000080600FF40C040506808103805080806B3
:101DC00000FFC0204030F030781004070706010003
:101DD000200020608090600507070600004020205A
:101DE0005070888805070706000010202050708872
:101DF00088050707060000205020507088880507D6
:101E00000706000028502050708888050707060044
:101E100000500020507088880507070600002050F9
:101E2000205070888805060606000078A0F0A0A063
:101E3000B80408080601FE6090808090602040048D
:101E400007070601004020F080E080F00407070645
:101E500001002040F080E080F00407070601002028
:101E600050F080E080F00407070601005000F08089
:101E7000E080F00307070601008040E0404040E0BA
:101E80000307070601002040E0404040E003070749
:101E900006010040A0E0404040E0030707060100C3
:101EA000A000E0404040E00506060600007048E85B
:101EB00048487004070706010050A090D0B09090E9
:101EC0000407070601004020609090906004070717
:101ED0000601002040609090906004070706010012
:101EE0002050609090906004070706010050A060A9
:101EF0009090906004070706010050006090909059
:101F00006005050506000088502050880408080672
:101F100001FF1070B0B0D0D0E080040707060100C8
:101F200040209090909060040707060100204090A8
:101F300090909060040707060100205090909090C8
:101F4000600407070601005000909090906005071C
:101F500007060000102088502020200406060601F5
:101F60000080E09090E0800406060601006090A0EA
:101F7000A090A00407070601004020007090907018
:101F800004070706010020400070909070040707C6
:101F900006010020500070909070040707060100B1
:101FA00050A000709090700406060601005000706A
:101FB00090907004070706010020502070909070E8
:101FC00005040406000070A8B0780406060601FEA9
:101FD00070808070204004070706010040200060E8
:101FE000B0C07004070706010020400060B0C07058
:101FF00004070706010020500060B0C07004060608
:10200000060100500060B0C07003070706010080A1
:102010004000C04040E0030707060100204000C028
:102020004040E003070706010040A000C04040E038
:10203000030606060100A000C04040E004070706B2
:102040000100306010709090600407070601005096
:10205000A000E09090900407070601004020006077
:102060009090600407070601002040006090906097
:1020700004070706010020500060909060040707E5
:1020800006010050A0006090906004060606010062
:102090005000609090600505050600002000F800E3
:1020A0002004040406010070B0D0E0040707060114
:1020B0000040200090909070040707060100204027
:1020C0000090909070040707060100205000909047
:1020D000907004060606010050009090907004096C
:1020E000090601FE2040009090907090600408085E
:1020F0000601FE8080E09090E080800408080601E0
:10210000FE50009090907090600000200023002608
:102110000029002C002F00320000010000030106FE
:102120000109014D6F766520302E316D6D004D6FC8
:10213000766520316D6D004D6F76652031306D6DA7
:10214000004D6F76656D656E7400526573746F72C5
:1021500065204661696C73616665004C6F6164203F
:102160006D656D6F72790053746F7265206D656D6A
:102170006F727900416476616E63656420536574A3
:1021800074696E6773004D61696E0054474C41532A
:102190004520436F6E6600504F4C594341524220D8
:1021A000436F6E66004C4159425249434B20436F86
:1021B0006E66004E2D56454E5420436F6E660041AC
:1021C0004C4C4F592039313020436F6E66005043DC
:1021D00054504520436F6E660042524944474520A3
:1021E000436F6E660041425320436F6E660048495C
:1021F000505320436F6E6600504C4120436F6E6613
:10220000005049442D43005049442D430050494457
:102210002D44005049442D44005049442D4900505C
:1022200049442D49005049442D50005049442D50F7
:10223000002002204661637400200220466163741E
:10224000002002204D6178002002204D617800209E
:1022500002204D696E002002204D696E004F6666B7
:10226000004F6E20004F6666004F6E200046616E84
:102270002073706565640046616E207370656564E7
:102280000042656400426564004E6F7A7A6C6500B6
:102290004E6F7A7A6C650054656D70657261747505
:1022A0007265007C3C3E5E2B3D3F2F5B5D3B2C2AE4
:1022B000225C0053442063617264206F6B006F7076
:1022C000656E526F6F74206661696C656400766F2D
:1022D0006C756D652E696E6974206661696C6564E4
:1022E000004572726F723A00534420696E6974201F
:1022F0006661696C006563686F3A001000C902107E
:10230000012C014001220170011801B0010E01F001
:102310000104015002FA00B002F0003003E600D0E0
:1023200003DC009004D2007005C800A006BE0000C7
:1023300008B400B009AA00D00BA000600E9600609F
:10234000118C000015820020197800C01D6E00A0BD
:10235000226400B0275A00902C500000314600E063
:10236000343C0010383200903A2800603C1E00A037
:102370003D1400803E0A00203F0000202D20496EC1
:1023800076616C6964206578747275646572206E1C
:10239000756D6265722021001000AD0330016A0185
:1023A00050022B0170030A019004F500B005E5000E
:1023B000D006D800F007CE001009C500300ABE00D4
:1023C000500BB700700CB100900DAB00B00EA60022
:1023D000D00FA200F0109D0010129900301395004C
:1023E0005014920070158E0090168B00B017870065
:1023F000D0188400F0198100101B7E00301C7B0077
:10240000501D7900701E7600901F7300B020700080
:10241000D0216E00F0226B00102469003025660088
:10242000502663007027610090285E00B0295C0090
:10243000D02A5900F02B5600102D5400302E510098
:10244000502F4E0070304B0090314800B0324500A4
:10245000D0334200F0343E0010363B0030373700B6
:102460005038330070392E00903A2900B03B2300D9
:10247000D03C1B00F03D1100103F0100F03F000078
:102480004572723A204D415854454D50003A20450E
:1024900078747275646572207377697463686564B3
:1024A000206F66662E204D415854454D5020747261
:1024B000696767657265642021004572723A204D34
:1024C000494E54454D50003A204578747275646504
:1024D00072207377697463686564206F66662E2066
:1024E0004D494E54454D5020747269676765726559
:1024F000642021004572723A204D415854454D5098
:10250000204245440054656D706572617475726552
:1025100020686561746564206265642073776974FE
:1025200063686564206F66662E204D415854454DA2
:1025300050207472696767657265642021210045C7
:1025400072726F723A00000000000000000000008C
:10255000000000000000000000000000000000007B
:102560000000000000000000000C0000000000005F
:10257000000C00000000000000120000000000003D
:102580000023000000000000002100000000000007
:10259000004C800000000000005E80000000000091
:1025A000009240000000000000A140000000000078
:1025B0000121200000000000027F900000000000C8
:1025C000020010000000000007FFF80000000000FB
:1025D00004000800000000000800040000000000E3
:1025E00008000600000000001000020000000000CB
:1025F000301E010000000000207F8100000000006C
:1026000041FFE0800000000043FCF080000000007B
:10261000873B7840000000018EDBFC600000000179
:102620000FEBCC20000000021FEDB61000000002EE
:102630001FDEB6100000000439CD7F080000000442
:1026400036E0FF08000000087EC0BB8400000018D0
:102650007F005D86000000107FC0ED82000000203A
:102660003CC07301000000203B337F01000000707C
:102670001BE77E03800000C81DEEDE04C00000885A
:102680000FDEDC04400001240FDF3C09200001269E
:1026900007DBF8192000027203E7F01390000251E3
:1026A00001FFE02290000489007F80244800090493
:1026B000801E004824000BFE400000DFF4001000E4
:1026C0004000008002001FFFFFFFFFFFFE00000030
:1026D00000000000000000000000000000000000FA
:1026E0000000000000001022103C3C0E1F001022D1
:1026F00010042211040010221008221104001022DC
:1027000010083C11040010221010221104001022A5
:102710001020221104001E1C1E3C3C0E0400000070
:1027200000000000000000000000000000000000A9
:102730000000000000000000000000000000000099
:102740000000000000000000000000000000000089
:102750000000000000000000000000000000000079
:102760000000000000000000000000000000000069
:102770000000000000000000000000000000000059
:102780000000000001050800FF060121023520FFBE
:10279000FF07FF06FF090050221656808080800048
:1027A00080153353A0A0A00257575050F850F8504E
:1027B000500257572070A07028702013355580A004
:1027C00040A02002475740A0A040A0A0502513538E
:1027D000808080122656408080808040122656805D
:1027E00040404040800245559060F0609002555551
:1027F0002020F82020113353604080044151F01113
:10280000335340E04002465610102040808012367C
:102810005640A0A0A0A04012365640C0404040E024
:102820000246566090106080F0024656F02060101C
:1028300090600246562060A0F02020024656F080AC
:10284000E01090600246566080E09090600246562C
:10285000F010202040400246566090609090600248
:102860004656609090701060122555C0C000C0C0E0
:1028700011365660600060408012365620408080DD
:102880004020034353F000F0123656804020204091
:102890008012365640A020400040015858304898D9
:1028A000A8A8904030024656609090F09090024662
:1028B00056E090E09090E0024656609080809060F4
:1028C000024656E090909090E0024656F080E080FC
:1028D00080F0024656F080E080808002465660908C
:1028E00080B090600246569090F0909090123656CC
:1028F000E040404040E002465670202020A04002C8
:10290000465690A0C0A0A09002465680808080804D
:10291000F002465690F0F090909002465690D0F01B
:10292000B0B090024656609090909060024656E09B
:102930009090E08080014757609090D0B060100286
:102940004656E09090E0909002465660904020906D
:1029500060123656E040404040400246569090900B
:10296000909060024656909090906060024656901B
:102970009090F0F0900246569090606090900256D1
:1029800056888850202020024656F010204080F0C3
:10299000123656E080808080E002465680804020DB
:1029A0001010123656E020202020E016325240A0AF
:1029B000014151F0162252804002445470909070B0
:1029C0000246568080E09090E0123454608080602F
:1029D00002465610107090907002445460B0C0606F
:1029E000024656205040E04040014555609070102E
:1029F000600246568080E09090901236564000C0AB
:102A00004040E01137572000202020A040024656C9
:102A1000808090E09090123656C040404040E002E6
:102A20005454D0A8A8A8024454E090909002445472
:102A300060909060014555E090E0808001455570C0
:102A400090701010024454A0D0808012345460C0A2
:102A500020C00246564040E040502002445490902E
:102A60009070123454A0A0A04002545488A8A850DA
:102A700002445490606090014555909070906002BF
:102A80004454F02040F0024757304020C0204030EE
:102A9000221656808080808080024757C0204030B8
:102AA0004020C006425250A0FFFFFFFFFFFFFFFF84
:102AB000FFFFFFFFFFFFFFFFFFFFFFFFFFFFFFFF26
:102AC000FFFFFFFFFFFFFFFFFF09005022165680A8
:102AD00000808080800146562070A0A070200246B1
:102AE000562050E04050A002555588705070880222
:102AF00056568850F820F820221757808080008092
:102B000080800247577080E0907010E0173151A02C
:102B100002565670A8C8C8A87014355560A0600049
:102B2000E003435350A050123353E020201431519E
:102B3000E002565670E8D8E8D870173151E01533E6
:102B40005340A04012355540E04000E01435554058
:102B5000A02040E0143555C020C020C016225240AD
:102B600080014555909090E08002565678E8E868DC
:102B7000282824115180112252408014355540C01C
:102B80004040E014355540A04000E0034353A050BE
:102B9000A0024757808080A060F0200247578080C5
:102BA000A0D010207002475780408060A0F0201213
:102BB000365640004080A04002475740206090F0C9
:102BC000909002475720406090F0909002475760E5
:102BD000906090F0909002475750A06090F09090D5
:102BE00002475790006090F09090024757609060C5
:102BF00090F0909002465670A0A0F0A0B001475708
:102C0000609080809060400247574020F080E080D4
:102C1000F00247572040F080E080F0024757609074
:102C2000F080E080F00247579000F080E080F012E2
:102C300037578040E0404040E01237572040E040A6
:102C40004040E012375740A0E0404040E012375784
:102C5000A000E0404040E00256567048E848487006
:102C600002475750A090D0B0909002475740206044
:102C7000909090600247572040609090906002478B
:102C8000576090609090906002475750A06090907D
:102C9000906002475790006090909060123353A06C
:102CA00040A002465670B0B0D0D0E0024757402056
:102CB00090909090600247572040909090906002D2
:102CC0004757609090909090600247579000909086
:102CD00090906002575710208850202020024656BE
:102CE00080E09090E0800246566090A0A090A00204
:102CF0004757402000709090700247572040007066
:102D00009090700247572050007090907002475783
:102D100050A00070909070024656500070909070D5
:102D200002475760906070909070025454F068B001
:102D30007811355560808060400247574020006020
:102D4000B0C06002475720400060B0C060024757E3
:102D500060900060B0C060024656500060B0C06035
:102D6000123757804000C04040E0123757204000E3
:102D7000C04040E012375740A000C04040E012364B
:102D800056A000C04040E0024757A040A0107090FD
:102D90006002475750A000E09090900247574020B3
:102DA0000060909060024757204000609090600261
:102DB00047576090006090906002475750A00060B5
:102DC0009090600246569000609090601235554099
:102DD00000E0004002445470B0D0E0024757402069
:102DE00000909090700247572040009090907002A1
:102DF00047576090009090907002465690009090D7
:102E000090700148582040009090709060014757A2
:102E10008080E090E0808001475790009090709013
:102E2000604D6F7665204178697300473238004104
:102E300075746F20486F6D65004D383400446973B8
:102E400061626C65205374657070657273004D61CA
:102E5000696E00436F6F6C646F776E0054474C412E
:102E6000534500504F4C5943415242004C41595731
:102E70004F4F44004C4159425249434B004E2D564E
:102E8000454E5400414C4C4F59203931300050438D
:102E9000545045004252494447450041425300487E
:102EA00049505300504C4100437573746F6D20546A
:102EB000656D70004D61696E00580059005A0045FB
:102EC00078747275646572004578747275646572A1
:102ED000004D6F7665205A004D6F76652059004D84
:102EE0006F76652058004D6F7665204178697300D4
:102EF00053746F7265206D656D6F72790042656401
:102F000000426564004E6F7A7A6C65004E6F7A7A83
:102F10006C650046616E2073706565640046616E85
:102F200020737065656400437573746F6D2054651C
:102F30006D700053746F7265206D656D6F727900EE
:102F400042656400426564004E6F7A7A6C65004E9B
:102F50006F7A7A6C650046616E20737065656400F7
:102F600046616E20737065656400437573746F6DA0
:102F70002054656D700053746F7265206D656D6FC0
:102F800072790042656400426564004E6F7A7A6C23
:102F900065004E6F7A7A6C650046616E20737065CD
:102FA00065640046616E20737065656400437573E7
:102FB000746F6D2054656D700053746F7265206D71
:102FC000656D6F72790042656400426564004E6F02
:102FD0007A7A6C65004E6F7A7A6C650046616E2075
:102FE00073706565640046616E207370656564008A
:102FF000437573746F6D2054656D700053746F72F8
:1030000065206D656D6F727900426564004265648C
:10301000004E6F7A7A6C65004E6F7A7A6C65004666
:10302000616E2073706565640046616E2073706523
:10303000656400437573746F6D2054656D70005343
:10304000746F7265206D656D6F7279004265640002
:10305000426564004E6F7A7A6C65004E6F7A7A6CC6
:10306000650046616E2073706565640046616E2080
:10307000737065656400437573746F6D2054656D7E
:10308000700053746F7265206D656D6F72790042C8
:10309000656400426564004E6F7A7A6C65004E6F1D
:1030A0007A7A6C650046616E2073706565640046CF
:1030B000616E20737065656400437573746F6D2075
:1030C00054656D700053746F7265206D656D6F721D
:1030D000790042656400426564004E6F7A7A6C65DF
:1030E000004E6F7A7A6C650046616E20737065657C
:1030F000640046616E207370656564004375737487
:103100006F6D2054656D700053746F7265206D652E
:103110006D6F72790042656400426564004E6F7A9B
:103120007A6C65004E6F7A7A6C650046616E20732A
:10313000706565640046616E207370656564004368
:103140007573746F6D2054656D700053746F726584
:10315000206D656D6F7279004265640042656400A0
:103160004E6F7A7A6C65004E6F7A7A6C65004661B4
:103170006E2073706565640046616E2073706565CE
:103180006400437573746F6D2054656D7000207416
:103190006F6F206C6F6E6720657874727573696FDE
:1031A0006E2070726576656E7465640020636F6C66
:1031B0006420657874727573696F6E2070726576BD
:1031C000656E746564006563686F3A0045317374B9
:1031D00070732F6D6D004531737470732F6D6D00BA
:1031E0004573746570732F6D6D00457374657073EE
:1031F0002F6D6D005A73746570732F6D6D005A7367
:10320000746570732F6D6D005973746570732F6DD5
:103210006D005973746570732F6D6D00587374650C
:1032200070732F6D6D005873746570732F6D6D0022
:10323000412D7265747261637400412D7265747200
:1032400061637400416D6178206500416D61782093
:103250006500416D6178207A00416D6178207A00C7
:10326000416D6178207900416D6178207900416D70
:103270006178207800416D61782078005654726141
:1032800076206D696E005654726176206D696E000D
:10329000566D696E00566D696E00566D61782065D9
:1032A00000566D6178206500566D6178207A005671
:1032B0006D6178207A00566D6178207900566D61D5
:1032C00078207900566D6178207800566D617820FD
:1032D000780056652D6A65726B0056652D6A6572B9
:1032E0006B00567A2D6A65726B00567A2D6A65728C
:1032F0006B005678792D6A65726B005678792D6A65
:1033000065726B00416363656C00416363656C00CB
:103310005A204F6666736574005A204F666673655F
:103320007400436F6E66696775726174696F6E00D1
:1033300057726974696E6720746F2066696C653AAC
:1033400020002E006F70656E206661696C65642CCC
:103350002046696C653A20002E006F70656E20660D
:1033600061696C65642C2046696C653A2000466989
:103370006C652073656C6563746564002053697ABD
:10338000653A200046696C65206F70656E65643A29
:1033900020002E006F70656E206661696C65642C7C
:1033A0002046696C653A20004E6F7720667265731F
:1033B000682066696C653A20004E6F7720646F69FB
:1033C0006E672066696C653A20002220706F73007A
:1033D0002220706172656E743A2200535542524F3A
:1033E0005554494E452043414C4C207461726765E9
:1033F000743A2200747279696E6720746F20636179
:103400006C6C207375622D67636F64652066696CF0
:103410006573207769746820746F6F206D616E79B1
:10342000206C6576656C732E204D4158206C657656
:10343000656C2069733A004D3234004D32332025DB
:1034400073006175746F25692E670000000A0B0216
:10345000090C0D0E08070304010000000000000025
:10346000000000000000000000000000000000005C
:103470000000000000000012111000000000000019
:10348000000000000000000000000000000000003C
:1034900000526573656E643A20006F6B004B494CB7
:1034A0004C45442E20005072696E7465722068612C
:1034B0006C7465642E206B696C6C28292063616CC8
:1034C0006C6564210053544F505045442E200050E9
:1034D00072696E7465722073746F707065642064B5
:1034E000756520746F206572726F72732E20466945
:1034F0007820746865206572726F7220616E642036
:10350000757365204D39393920746F207265737475
:103510006172742E202854656D70657261747572C5
:10352000652069732072657365742E20536574205D
:103530006974206166746572207265737461727457
:10354000696E6729000000A0400000A040000080D4
:1035500040000095430080894300007A43FFFFFF4D
:103560002200656E717565696E6720220043616E89
:103570006E6F7420656E7465722073756264697213
:103580003A2000010210202008081020401020409E
:103590008002010201080402010102040810204017
:1035A0008080402010080402018004020180402035
:1035B000100804020108040201010204081020405E
:1035C000800102040810204080000022002500280D
:1035D000002B002E0031003400020100000501081C
:1035E000010B010505050507050808080802020288
:1035F000020A0A080804040404010101010101018E
:10360000010303030303030303040707070C0C0C64
:103610000C0C0C0C0C02020202060606060606063C
:10362000060B0B0B0B0B0B0B0B0224F4D43050C30B
:103630008E20C2A24017828B7011127A910D816C7C
:10364000D90AA861E108C7586607615143061E4BB5
:103650005D05C145A7041A411104093D980371395C
:1036600031034036DB0265339102D4305402802EA0
:103670001D02632CEE01752AC501B028A001102798
:1036800081018F2564012B244B01E0223401AC2100
:103690001F018D200D01801FFC00841EED00971D71
:1036A000DF00B81CD200E61BC600201BBC00641A59
:1036B000B200B219A8000A19A0006A189900D1171F
:1036C000910040178B00B516840031167E00B315AB
:1036D00079003A157300C7146F0058146A00EE138E
:1036E00066008813630025135E00C7125B006C122E
:1036F000570015125400C111510070114F002111D3
:103700004B00D61049008D104700461044000210AF
:103710004200C00F4000800F3E00420F3C00060FE9
:103720003B00CB0E3800930E37005C0E3500270EA1
:103730003400F30D3200C10D3100900D3000600DEA
:103740002E00320D2D00050D2C00D90C2B00AE0CD7
:103750002900850C29005C0C2700350C27000E0C75
:103760002600E80B2400C40B2400A00B23007D0BD3
:1037700023005A0B2100390B2100180B2000F80AF6
:103780001F00D90A1E00BB0A1E009D0A1D00800AE8
:103790001D00630A1C00470A1B002C0A1B00110AAB
:1037A0001A00F7091A00DD091900C4091900AB094C
:1037B0001900920917007B091800630917004C09CA
:1037C000160036091600200916000A091500F5082A
:1037D0001500E0081400CC081400B8081400A40870
:1037E0001400900813007D0812006B08130058089D
:1037F00012004608120034081100230811001208B4
:10380000110001081100F0071000E0071000D007B8
:103810001000C0071000B0070F00A10710009107AB
:103820000E0083070F0074070F0065070E0057078F
:103830000E0049070E003B070D002E070E00200763
:103840000D0013070D0006070D00F9060C00ED062C
:103850000D00E0060C00D4060C00C8060C00BC06E7
:103860000C00B0060C00A4060B0099060C008D0697
:103870000B0082060B0077060B006C060B0061063E
:103880000A0057060B004C060A0042060A003806DA
:103890000A002E060A0024060A001A060A0010066C
:1038A000090007060A00FD050900F4050900EB05FB
:1038B0000900E2050900D9050900D0050900C7057E
:1038C0000900BE050900B5050800AD050800A505FD
:1038D00009009C050800940508008C050800840573
:1038E00008007C050800740508006C0507006505E4
:1038F00008005D050700560508004E05070047054E
:1039000007004005080038050700310507002A05B3
:103910000700230507001C050600160507000F0514
:1039200007000805060002050700FB040600F50471
:103930000700EE040600E8040600E2040700DB04CA
:103940000600D5040600CF040600C9040600C3041F
:103950000600BD040600B7040600B1040500AC046F
:103960000600A6040600A00405009B0406009504BA
:103970000500900406008A04050085040500800403
:1039800006007A04050075040500700405006B0448
:10399000050066040500610405005C040500570489
:1039A0000500520405004D040500480405004304C9
:1039B00005003E0404003A04050035040500300407
:1039C00004002C04050027040400230405001E0441
:1039D00004001A04040016040500110404000D0478
:1039E0000400090405000404040000040400FC03AE
:1039F0000400F8030400F4030400F0030400EC03E3
:103A00000400E8030400E4030400E0030400DC0312
:103A10000400D8030400D4030400D0030400CC0342
:103A20000400C8030300C503030024F404D9201BC9
:103A3000C40C5C0E9804C4095F0265077101F405AB
:103A4000F900FB04B30048048700C1036900580370
:103A5000550003034500BE023A00840231005302C0
:103A60002A002902250004022000E4011C00C801EC
:103A70001900AF01170098011400840113007101AF
:103A800010006101100051010E0043010D003601CC
:103A90000B002B010B0020010B00150109000C018C
:103AA000090003010800FB000800F3000800EB0018
:103AB0000700E4000600DE000600D8000600D20081
:103AC0000600CC000500C7000500C2000500BD00CF
:103AD0000400B9000400B5000400B1000400AD000A
:103AE0000400A9000400A5000300A20003009F0039
:103AF00004009B000300980003009500020093005F
:103B00000300900003008D0002008B00030088007A
:103B100002008600020084000300810002007F0092
:103B200002007D0002007B000200790002007700A5
:103B300001007600020074000200720001007100B2
:103B400002006F0002006D0001006C0002006A00BC
:103B500001006900020067000100660001006500C5
:103B600001006400020062000100610001006000C9
:103B700001005F0002005D0001005C0001005B00CD
:103B800001005A00010059000100580001005700CF
:103B900001005600010055000100540001005300CF
:103BA00000005300010052000100510001005000CC
:103BB00001004F0001004E0000004E0001004D00CA
:103BC00001004C0001004B0000004B0001004A00C6
:103BD00001004900010048000000480001004700C2
:103BE00001004600000046000100450000004500BD
:103BF00001004400010043000000430001004200B6
:103C000000004200010041000000410001004000AE
:103C100001003F0000003F0001003E0000003E00A8
:103C200001003D0000003D0001003C0000003C00A0
:103C300000003C0001003B0000003B0001003A0096
:103C400000003A000100390000003900010038008E
:103C50000000380000003800010037000000370085
:103C6000010036000000360000003600010035007B
:103C70000000350000003500010034000000340071
:103C80000000340001003300000033000000330066
:103C9000010032000000320000003200010031005B
:103CA0000000310000003100010030000000300051
:103CB0000000300001002F0000002F0000002F0046
:103CC00000002F0001002E0000002E0000002E003A
:103CD00001002D0000002D0000002D0000002D002F
:103CE00001002C0000002C0000002C0000002C0023
:103CF00001002B0000002B0000002B0000002B0017
:103D000001002A0000002A0000002A0000002A000A
:103D100001002900000029000000290000002900FE
:103D200000002900010028000000280000002800F1
:103D300000002800000028000100270000002700E4
:103D400000002700000027000000270001002600D7
:103D500000002600000026000000260000002600CB
:103D600001002500000025000000250000002500BE
:103D700000002500000025000100240000002400B0
:103D800000002400000024000000240001002300A3
:103D90000000230000002300000023000000230097
:103DA0000000230000002300010022000000220088
:103DB000000022000000220000002200000022007B
:103DC000010021000000210000002100000021006E
:103DD000000021000000210000002100010020005F
:103DE0000000200000002000000020000000200053
:103DF00000002000000020000000200001001F0043
:103E000000001F0000001F0000001F0000001F0036
:103E100000001F0000001F0001001E0000001E0027
:103E200000001E0000001E0000004D383420582005
:103E300059205A20450045313A200045303A2000AB
:103E40005A3A2000593A2000583A20004D53312C5C
:103E50004D53322050696E730A004175746F74655A
:103E60006D700000C3F054F111241FBECFEFD1E2FA
:103E7000DEBFCDBF00E00CBF14E0A0E0B2E0E4E0A4
:103E8000FBEF01E00BBF02C007900D92AA37B1070C
:103E9000D9F725E1AAE7B4E001C01D92A030B2072E
:103EA000E1F71FE1C3E3DFE100E006C0219701096C
:103EB000802FFE010E94F3FCC233D10780E0080787
:103EC000A9F70E94FCE60C9471FD0C9400002F925F
:103ED0003F924F925F926F927F928F929F92AF929A
:103EE000BF92CF92DF92EF92FF920F931F93CF93E7
:103EF000DF93CDB7DEB7C357D1090FB6F894DEBF55
:103F00000FBECDBF87E40E94B33DF82E882309F48D
:103F1000C6C20E94D93D0E9499FA6430710509F425
:103F2000EEC054F46230710509F4D6C00CF0DCC068
:103F300077FF17C00C944C386A35710509F464C2D8
:103F400034F46C31710509F420C10C944C386B3594
:103F5000710509F45DC26C35710509F45EC20C94FB
:103F60004C38809138058111B7C00E9429D687E46A
:103F70009FE00E9457D20E94D26160933E0F7093DF
:103F80003F0F8093400F9093410F2091470F309146
:103F9000480F4091490F50914A0F60913A09709132
:103FA0003B0980913C0990913D090E94F2F58111F5
:103FB00074C020914B0F30914C0F40914D0F509198
:103FC0004E0F60913E0970913F0980914009909198
:103FD00041090E94F2F5811160C020E030E040E725
:103FE00052E460917102709172028091730290911B
:103FF00074020E9431FAA2E6CA2EA9E0DA2E7B01F1
:104000008C0123E53FE04FE45FE06BE47FE087E471
:104010009FE00E943EAF8091470F9091480FA09182
:10402000490FB0914A0F80933A0990933B09A093AE
:104030003C09B0933D0980914B0F90914C0FA0919A
:104040004D0FB0914E0F80933E0990933F09A0937E
:104050004009B093410980914F0F9091500FA0916A
:10406000510FB091520F8093420990934309A0934E
:104070004409B09345098091530F9091540FA0913A
:10408000550FB091560F8093460990934709A0931E
:104090004809B09349090C94F43C60911602709160
:1040A0001702072E000C880B990B0E94F8F520913F
:1040B00071023091720240917302509174020E9419
:1040C00028F220E030E040E752E40E9431FA20E09C
:1040D00030E048EC52E48DCF80913805811104C066
:1040E0000E94AED681E007C080913805811107C0DB
:1040F0000E94AED680E00E94E9D20C94F43C84E3A6
:1041000095E00E941D4980E50E94B33D882339F067
:104110000E94D93D0E949EFA6B017C0103C0C12C14
:10412000D12C760183E50E94B33D882361F00E9483
:10413000D93D20E030E04AE754E40E9428F20E9492
:104140009EFA6B017C010E94D6E50E94D261C60EE8
:10415000D71EE81EF91E0E94D26160933E0F709335
:104160003F0F8093400F9093410F0E94D2616C15D6
:104170007D058E059F0510F00C944C380E94CB876E
:104180000E9459D00E943249F0CF809171029091E3
:104190007202A0917302B091740280938A0490938A
:1041A0008B04A0938C04B0938D048091160290919F
:1041B0001702909389048093880484E690E090939A
:1041C0001702809316020E94D26160933E0F709393
:1041D0003F0F8093400F9093410F11E010930F0217
:1041E00080913A0990913B09A0913C09B0913D0919
:1041F0008093470F9093480FA093490FB0934A0FB5
:1042000080913E0990913F09A0914009B0914109E8
:1042100080934B0F90934C0FA0934D0FB0934E0F84
:104220008091420990914309A0914409B0914509B8
:1042300080934F0F9093500FA093510FB093520F54
:104240008091460990914709A0914809B091490988
:104250008093530F9093540FA093550FB093560F24
:1042600010927102109272021092730210927402F4
:1042700088E50E94B33D882311F080E009C089E5FC
:104280000E94B33D8111F9CF8AE50E94B33D812799
:104290008093020281110C944F3888E50E94B33D4F
:1042A000882331F089E50E94B33D81110C944F3889
:1042B0008091020281110C944B3988E50E94B33D34
:1042C00081110C944B398091020281110C94513967
:1042D00089E50E94B33D81110C94513988E50E9413
:1042E000B33D8823D1F00E94CE3D672B682B692B0C
:1042F000A1F00E94D93D20917A0430917B04409135
:104300007C0450917D040E9455F960933A097093A2
:104310003B0980933C0990933D0989E50E94B33D98
:104320008823D1F00E94CE3D672B682B692BA1F02A
:104330000E94D93D20917E0430917F0440918004F9
:10434000509181040E9455F960933E0970933F0992
:1043500080934009909341098091020281110C944D
:1043600057398AE50E94B33D81110C9457398AE58B
:104370000E94B33D8823D1F00E94CE3D672B682B6D
:10438000692BA1F00E94D93D2091820430918304D1
:1043900040918404509185040E9455F9609342092C
:1043A0007093430980934409909345090E94D97DF5
:1043B00010920F0280918A0490918B04A0918C043A
:1043C000B0918D048093710290937202A093730256
:1043D000B09374028091880490918904909317029D
:1043E000809316020E94D26160933E0F70933F0F3C
:1043F0008093400F9093410F1092530510925205F5
:10440000109251050C944C381092290F0C944C3892
:1044100081E08093290F0C944C3885E40E94B33DD1
:10442000811102C00E94D6E577EEA72E72E0B72E6A
:10443000EAE3EE2EE9E0FE2EFAE7CF2EF4E0DF2EDF
:1044400010E0D5018D915D010E94B33D8823E1F01C
:10445000133051F40E94D93DF70160837183828348
:1044600093830E948DCD10C00E94D93DD6012D911D
:104470003D914D915C910E9455F9F70160837183E4
:10448000828393830E94D97D1F5FF4E0EF0EF11CBD
:1044900024E0C20ED11C1430A1F60C944C388DE4EB
:1044A0000E94B33D882311F40C9481370E94D93DBA
:1044B0000E9499FA6537710511F40C94552C0CF093
:1044C000AFC06032710509F48DC40CF048C067318B
:1044D000710509F43CC25CF56231710511F40C946C
:1044E000882BBCF477FF02C00C944C386230710505
:1044F0000CF475C16131710511F00C944C388BE0EE
:1045000095E00E941D4917981698159814980C94D8
:104510004C386531710509F410C20CF012C26431D7
:10452000710511F00C944C38EBEFF4E0BDC16B3128
:10453000710509F44EC23CF46931710509F431C2C8
:104540000CF41CC238C26E31710509F4C9C20CF0FA
:10455000EAC46C31710509F490C20C944C386C3586
:10456000710511F40C94C02BC4F56235710511F47A
:104570000C947F2B74F46035710511F40C94552B59
:1045800014F00C94622B6A32710509F454C50C9432
:104590004C386435710511F40C94882B14F40C9488
:1045A000832B6535710511F00C944C3883E50E941E
:1045B000B33D0E94D93D20E030E04AE754E40E9438
:1045C00028F20E949EFA60933A0F70933B0F8093FB
:1045D0003C0F90933D0F0C944C386B36710511F4E1
:1045E0000C94492B6CF46936710509F473C514F009
:1045F0000C94FB2A6836710509F43BC50C944C38C1
:104600006237710511F40C946A2C6337710511F44B
:104610000C94462C6D36710511F00C944C3847C63D
:104620006C3231E0730711F40C94782F0CF05DC0FC
:104630006B3C710511F40C948A2E44F56C387105AD
:1046400009F437C59CF46837710511F40C94482DB2
:104650006937710511F40C944C2D6737710511F011
:104660000C944C38EFE0F3E00C94572D683C710546
:1046700011F40C94D22D693C710511F40C94672E41
:104680006E3B710511F00C944C38B7C66C3D71054A
:1046900011F40C94422FC4F46D3C710511F40C9488
:1046A000CB2E14F40C94A92E6E3C710511F00C94D1
:1046B0004C38BAE7EB2EB4E0FB2E07EE12E083E0B5
:1046C000D82ED00E0C94322F623E710511F40C944A
:1046D000642F6A3F710511F40C9410316D3D710522
:1046E00011F00C944C380C94532F643F51E0750733
:1046F00011F40C949B342CF5603391E0790711F49C
:104700000C9470305CF46E32B1E07B0711F40C94C1
:104710003C3114F40C94AA2F0C9450316F35F1E015
:104720007F0711F40C942D37603921E0720711F4E2
:104730000C9498346E35714011F00C944C380C94F4
:10474000FB36683542E0740711F40C94A43494F4F9
:10475000663F81E0780711F40C94A13414F40C94B2
:104760009E34673F714011F00C944C380E94854094
:104770000C944C386C38B3E07B0711F40C94E4369D
:1047800064F46B38734011F00C944C3877EEE72EDC
:1047900072E0F72E10E00C94BD36603A23E0720709
:1047A00009F48BC3673E734011F00C944C3810929F
:1047B00038050E9402498091420F9091430FA091C9
:1047C000440FB091450F8093390590933A05A0931B
:1047D0003B05B0933C050E9408D70C944C3883E20B
:1047E00095E00E941D4980E50E94B33D882339F081
:1047F0000E94D93D0E949EFA6B017C0103C0C12C2E
:10480000D12C760183E50E94B33D882361F00E949C
:10481000D93D20E030E04AE754E40E9428F20E94AB
:104820009EFA6B017C010E94D6E50E94D2616093E2
:104830003E0F70933F0F8093400F9093410FC11430
:10484000D104E104F104C1F00E94D261C60ED71E6A
:10485000E81EF91E0E94D2616C157D058E059F052C
:10486000B0F40E949748811112C00E94CB870E9429
:1048700059D00E943249EECF0E949748811107C05B
:104880000E94CB870E9459D00E943249F5CF84E123
:1048900095E00E941D490C944C389091C00095FF02
:1048A000FCCF8093C600319684918111F6CF809120
:1048B000C00085FFFCCF8AE08093C60010924B0CAD
:1048C00010924A0C40E050E0BA0185EF99E00E9456
:1048D0004E738BE1E5EFF9E0DE01159601900D9244
:1048E0008A95E1F78091F3099091F4099C838B8379
:1048F0008BEB92E09A838983BE016F5F7F4F89E7DC
:1049000094E00E942CDACE0101960E9462CFEDEE77
:10491000F4E08491882341F09091C00095FFFCCF92
:104920008093C6003196F5CF8091C00085FFFCCF03
:104930008AE08093C6000C944C380E949B7F0C94B4
:104940004C381092C4091092C5090C944C3800914F
:104950003D0510913E050C5F1F4F6AE270E0C801F3
:104960000E9442FD009719F0FC013197108241E04E
:1049700061E0C8010E9472CA0C944C388091C5094C
:10498000882319F081E08093C4090E94D26160936A
:10499000AC047093AD048093AE049093AF040C9478
:1049A0004C388091C409882311F40C944C3810922F
:1049B000C4090C944C388091C509882311F40C94D7
:1049C0004C3883E50E94B33D81110C945D390C9401
:1049D0004C388091C509882309F439C0EFEDF1E026
:1049E0008491882341F09091C00095FFFCCF809383
:1049F000C6003196F5CF6091450C7091460C8091C0
:104A0000470C9091480C4AE00E94BA7CEDEDF1E031
:104A10008491882341F09091C00095FFFCCF809352
:104A2000C6003196F5CF60913D0C70913E0C80919F
:104A30003F0C9091400C4AE00E94BA7C8091C000EB
:104A400085FFFCCF8AE08093C6000C944C38E1EFE0
:104A5000F1E08491882341F09091C00095FFFCCF54
:104A60008093C6003196F5CF8091C00085FFFCCFC2
:104A70008AE08093C6000C944C3880913D0590915B
:104A80003E056AE270E004960E9442FD8C01892B8B
:104A9000E1F02091D4063091D50640E6429FC00156
:104AA000439F900D11246EE470E08C5A9A4F0E943F
:104AB00042FD60E270E00E9442FD019690933E0547
:104AC00080933D05F8013197108280913D059091CA
:104AD0003E0541E060E004960E9472CA0C944C3896
:104AE0008091C509882311F40C944C3880E99BE02F
:104AF0000E940B7380E99BE00E9487741092C209A8
:104B00001092C30980913D0590913E056AE270E0E4
:104B100004960E9442FD8C01892BE1F02091D4067D
:104B20003091D50640E6429FC001439F900D11246D
:104B30006EE470E08C5A9A4F0E9442FD60E270E091
:104B40000E9442FD019690933E0580933D05F80139
:104B50003197108200913D0510913E058091C50965
:104B6000882311F40C944C38580144E0A40EB11C75
:104B700080E99BE00E9487741092C4091D82188608
:104B80001C821B828BEB92E09A83898381EF99E0F0
:104B90009093110A8093100AD80114968C918F3249
:104BA00009F08FC06FE270E0C5010E9442FD8C01E8
:104BB0000F5F1F4F6AE0E62EFE0131964F0101158F
:104BC000110509F484C06FE270E0C8010E9442FD43
:104BD0006C01009709F47CC00817190708F078C029
:104BE0003C01601A710AA301B801CE0180960E94AF
:104BF00062FDE0E2F0E0EC0FFD1FE60DF71D108214
:104C00008E01005E1F4FF8018191882339F0909149
:104C1000C00095FFFCCF8093C600F6CF8091C00006
:104C200085FFFCCFE092C6006091100A7091110AD6
:104C30006115710511F06C5F7F4F21E0AE01405EA0
:104C40005F4FCE0105960E946A7A811132C0EBE275
:104C5000F2E08491882371F09091C00095FFFCCF21
:104C60008093C6003196F5CF9091C00095FFFCCFA0
:104C70008093C600D8018D918D018111F5CFE9E2B5
:104C8000F2E08491882341F09091C00095FFFCCF21
:104C90008093C6003196F5CF8091C00085FFFCCF90
:104CA0008AE08093C600CE0101960E9462CF0C94E8
:104CB0004C389092110A8092100A86010F5F1F4FA4
:104CC0007ECF82E19AE09093110A8093100A8501C9
:104CD0006091100A7091110A6115710511F06C5FF5
:104CE0007F4F18A21BA222E0A801CE0180960E944D
:104CF0006A7A8823F1F0CE0180960E94E0C9882369
:104D0000C1F06CA57DA58EA59FA541E00E94A9BB21
:104D1000882379F0E8A9B0E2EB9FF0011124E15E6D
:104D2000F84F309731F085EE80831BA20E9469BB5B
:104D3000F82ECE0180960E94653EFF2009F1EBE13E
:104D4000F2E08491882341F09091C00095FFFCCF60
:104D50008093C6003196F5CFF8018191882339F010
:104D60009091C00095FFFCCF8093C600F6CF1092C3
:104D7000450C1092460C1092470C1092480C2CC017
:104D8000E3E0F2E08491882341F09091C00095FF28
:104D9000FCCF8093C6003196F5CFF801819188232E
:104DA00039F09091C00095FFFCCF8093C600F6CFFC
:104DB000E1E0F2E08491882341F09091C00095FFFA
:104DC000FCCF8093C6003196F5CF8091C00085FF5F
:104DD000FCCF8AE08093C600CE0101960E9462CF8C
:104DE0000C944C388091C40981110E94D6E5009141
:104DF0003D0510913E050C5F1F4F6AE270E0C8014F
:104E00000E9442FD7C0161E270E0C8010E9442FD07
:104E1000009719F08C010F5F1F4FE114F10419F096
:104E2000F7013197108280E50E94B33DF82E809102
:104E30003D0590913E050817190708F4F12C809163
:104E4000C509882311F40C944C3841E04F2561E0EA
:104E5000C8010E9472CA83E50E94B33D8823B9F05D
:104E600080913D0590913E058017910780F40E9446
:104E7000CE3DAB01BC014093450C5093460C609372
:104E8000470C7093480C80E99BE00E944E73809120
:104E9000C509882319F081E08093C409F1100C94AE
:104EA0004C380E94D2616093AC047093AD0480933F
:104EB000AE049093AF040C944C3880913D059091D2
:104EC0003E056AE270E005960E9442FD8C01892B46
:104ED000E1F02091D4063091D50640E6429FC00112
:104EE000439F900D11246EE470E08C5A9A4F0E94FB
:104EF00042FD60E270E00E9442FD019690933E0503
:104F000080933D05F8013197108280913D05909185
:104F10003E0521E02093C30941E060E005960E9430
:104F200072CA0C944C380E94D2616093B0047093A2
:104F3000B1048093B2049093B3040091AC04109137
:104F4000AD042091AE043091AF04601B710B820B55
:104F5000930B28EE33E040E050E00E9419F9CA01BB
:104F6000B9012CE330E040E050E00E9419F97F9352
:104F70006F933F932F938EED94E09F938F938E01C9
:104F80000F5F1F4F1F930F930E94C3F5E2E5F6E0FA
:104F900094910FB6F894DEBF0FBECDBFE2E5F6E008
:104FA000992349F08091C00085FFFCCF9093C60003
:104FB00031969491F5CFF8018191882339F0909141
:104FC000C00095FFFCCF8093C600F6CF8091C00053
:104FD00085FFFCCF8AE08093C600C8010E94234968
:104FE0008091AB04882311F40C944C381092AB04DC
:104FF0000091620910E0000F111F07551B4FD801E7
:105000006D917C91072E000C880B990B0E94F8F58E
:10501000209110023091110240911202509113021E
:105020000E9480FB181614F00C944C38F801118281
:1050300010820C944C3883E50E94B33D882311F410
:105040000C944C380E94D93D6B017C0180E50E9494
:10505000B33D882311F40C944C38C701B6010E946B
:1050600099FA6F3F710509F010F40C946D390C94A6
:105070004C3888E690E00E946ACF81110C944C383D
:1050800083E50E94B33D882311F40C944C381091B1
:10509000460F0E94D93D212F30E0220F331F890196
:1050A00007551B4F0E9499FAD8016D937C930C947D
:1050B0004C3883E50E94B33D882311F40C944C389E
:1050C0000E94D93D0E9499FA70931E0760931D07B4
:1050D0000C944C3889E690E00E946ACF81110C94C0
:1050E0004C38E8EDF4E08491882341F09091C000C1
:1050F00095FFFCCF8093C6003196F5CFE091460F27
:10510000B4E0EB9FF0011124E750F94F6081718109
:105110008281938141E00E94417DE5EDF4E084913C
:10512000882341F09091C00095FFFCCF8093C6008A
:105130003196F5CFE091460FF0E0EE0FFF1FE755F7
:10514000FB4F60817181072E000C880B990B0E9428
:10515000F8F541E00E94417DE1EDF4E0849188237F
:1051600041F09091C00095FFFCCF8093C60031962E
:10517000F5CF6091F5067091F6068091F706909153
:10518000F80641E00E94417DEEECF4E08491882332
:1051900041F09091C00095FFFCCF8093C6003196FE
:1051A000F5CF60911D0770911E07072E000C880B2C
:1051B000990B0E94F8F541E00E94417DEBECF4E090
:1051C0008491882341F09091C00095FFFCCF80939B
:1051D000C6003196F5CF60E070E0CB010E942F7DD4
:1051E000E9ECF4E08491882341F09091C00095FFB0
:1051F000FCCF8093C6003196F5CF6091F90670918F
:10520000FA068091FB069091FC0641E00E94417DE8
:10521000E6ECF4E08491882341F09091C00095FF82
:10522000FCCF8093C6003196F5CF6091A9047091B0
:10523000AA04072E000C880B990B0E94F8F541E098
:105240000E94417DE2ECF4E08491882341F090914A
:10525000C00095FFFCCF8093C6003196F5CFE0915A
:10526000460FF0E0EE5AF34F608170E080E090E08E
:105270000E942F7DEDEBF4E08491882341F0909122
:10528000C00095FFFCCF8093C6003196F5CF6091AA
:10529000510C70E080E090E00E942F7D8091C00072
:1052A00085FFFCCF8AE08093C6000C94F43C8DE629
:1052B00090E00E946ACF81110C944C3882EB94E00C
:1052C0000E941D491092AB0483E50E94B33D8823E0
:1052D000A1F01091460F0E94D93D212F30E0220FFE
:1052E000331F890107551B4F0E9499FAF8017183FA
:1052F000608381E08093010217C082E50E94B33D84
:10530000882391F01091460F0E94D93D212F30E063
:10531000220F331F890107551B4F0E9499FAD801AC
:105320006D937C931092010283E50E94B33D882324
:1053300051F00E94D93D6093100270931102809346
:1053400012029093130282E40E94B33D882351F02D
:105350000E94D93D60933D0270933E0280933F02CC
:105360009093400286E40E94B33D882369F00E9436
:10537000D93D6093390270933A0280933B02909337
:105380003C0281E08093AB040E94D2612B013C017E
:105390000091460F10E0F801EE0FFF1FE755FB4F9D
:1053A00060817181072E000C880B990B0E94F8F523
:1053B000000F111F000F111FF801E750F94F11E006
:1053C00020813181428153810E9480FB18160CF0AC
:1053D00010E01093870488248A94982C54017FEA63
:1053E000272E74E0372EEBEAEE2EE4E0FE2EF7EAED
:1053F000CF2EF4E0DF2E0C94CF398CE894E00E949D
:105400001D4983E50E94B33D882361F00E94D93D88
:105410000E9499FA70931E0760931D0781E08093A4
:1054200001020FC082E50E94B33D882351F00E9423
:10543000D93D0E9499FA70931E0760931D07109240
:1054400001020E94D2614B015C0160911D077091C5
:105450001E07072E000C880B990B0E94F8F511E02F
:105460002091F5063091F6064091F7065091F80626
:105470000E9480FB18160CF010E01093870409E8D6
:1054800014E075E8E72E74E0F72EE1E8CE2EE4E0B4
:10549000DE2EFAE07F2E8091870460911D077091C7
:1054A0001E07882309F480C0072E000C880B990B77
:1054B0000E94F8F52091F5063091F6064091F70626
:1054C0005091F8060E9480FB18160CF084C00E94D0
:1054D000D261DC01CB0188199909AA09BB09893E6F
:1054E0009340A105B10508F458C0E091620924E099
:1054F000E29FF0011124E750F94F608171818281B0
:105500009381F8012491E9E8F4E0222349F03091F5
:10551000C00035FFFCCF2093C60031962491F5CF13
:1055200042E00E94417DF7018491E5E8F4E08823A0
:1055300049F09091C00095FFFCCF8093C600319652
:105540008491F5CF6091620970E080E090E00E9464
:105550002F7DF6018491E1E8F4E0882349F09091F1
:10556000C00095FFFCCF8093C60031968491F5CFA3
:105570006091F5067091F6068091F7069091F80615
:1055800041E00E94417D8091C00085FFFCCF709278
:10559000C6000E94D2614B015C010E94CB870E9431
:1055A00059D00E94324977CF072E000C880B990BF7
:1055B0000E94F8F52091F5063091F6064091F70625
:1055C0005091F8060E94F2F587FF05C08091010214
:1055D000882309F47CCF87E794E00E941D490E944C
:1055E000D26160933E0F70933F0F8093400F909372
:1055F000410F0C944C3884E50E94B33D8823C9F0D8
:105600000E94D93D0E949EFA7093A7006093A60065
:1056100083E50E94B33D882311F40C944C380E941A
:10562000D93D0E9499FA70931C0760931B070C9454
:105630004C3883E50E94B33D882319F10E94D93D7F
:1056400020E030E0A9010E94F2F587FD0FC00E9422
:10565000D93D20E030E04FE753E40E9480FB18166C
:1056600044F00E94D93D0E9499FA05C060E070E0C4
:1056700002C06FEF70E070931C0760931B070C94DF
:105680004C388FEF90E090931C0780931B070C948D
:105690004C381092860410921C0710921B0710922F
:1056A000E20E1092E10E0C944C389D9AA59881E080
:1056B000809300028CE694E00E941D490E943249CA
:1056C0000C944C380E9423840E94D6E5149A0E94C0
:1056D000E4E510921C0710921B0768EE73E080E06F
:1056E00090E00E949A619D9AA59A1092000283E62A
:1056F00094E00E941D490E9432490C944C3810924B
:105700002D0F0C944C3881E080932D0F0C944C3865
:1057100083E50E94B33D8823A1F00E94D93D20E09B
:1057200030E04AE754E40E9428F20E949EFA609317
:105730006D0270936E0280936F02909370020C94CE
:105740004C3888E50E94B33D81110C94C23A89E53A
:105750000E94B33D81110C94C23A8AE50E94B33D88
:1057600081110C94C23A85E40E94B33D81110C94DE
:10577000C23A0E94D6E5149A0E94E4E50C944C3893
:1057800057EE852E52E0952E03E719E06FEFA62E17
:105790006EE0B62E29E93FE03CAF2BAF312CD401AF
:1057A0008D914D010E94B33D882309F45EC0B3E0A2
:1057B0003B1254C00E94D93D2B013C0120E030E057
:1057C00040EA51E40E94F2F587FF41C0A301920133
:1057D000F80160817181828193810E9431FA6B01AD
:1057E0007C019B01AC0160910F0F7091100F8091B3
:1057F000110F9091120F0E9428F260930F0F709377
:10580000100F8093110F9093120FA7019601D501ED
:105810006D917D918D919C910E9428F2F50160839C
:10582000718382839383ABADBCAD6D917D918D917E
:105830009C910E94F6F5A70196010E9428F20E9411
:105840009EFAEBADFCAD6083718382839383D801B4
:105850004D925D926D927C92139707C00E94D93D44
:10586000F801608371838283938333940C5F1F4FAD
:10587000F4E0AF0EB11C2BAD3CAD2C5F3F4F3CAF05
:105880002BAF34E033128BCF0C944C38E7E9F3E0C4
:105890008491882311F40C944C389091C00095FFAA
:1058A000FCCF8093C6003196F3CF00913D05109157
:1058B0003E050B5F1F4F6AE270E0C8010E9442FD87
:1058C000009719F0FC0131971082C8010E9423490A
:1058D0000C944C38E4E9F3E08491882341F09091F2
:1058E000C00095FFFCCF8093C6003196F5CF609144
:1058F0003A0970913B0980913C0990913D0942E041
:105900000E94417DE1E9F3E08491882341F0909188
:10591000C00095FFFCCF8093C6003196F5CF609113
:105920003E0970913F09809140099091410942E000
:105930000E94417DEEE8F3E08491882341F090914C
:10594000C00095FFFCCF8093C6003196F5CF6091E3
:10595000420970914309809144099091450942E0C0
:105960000E94417DEBE8F3E08491882341F090911F
:10597000C00095FFFCCF8093C6003196F5CF6091B3
:10598000460970914709809148099091490942E080
:105990000E94417DE0E8F3E08491882341F09091FA
:1059A000C00095FFFCCF8093C6003196F5CF2FB78E
:1059B000F89460912A0970912B0980912C0990919B
:1059C0002D092FBF0E94F8F52091730930917409B9
:1059D00040917509509176090E9431FA42E00E9487
:1059E000417DEDE7F3E08491882341F09091C00080
:1059F00095FFFCCF8093C6003196F5CF2FB7F89472
:105A000060912E0970912F09809130099091310990
:105A10002FBF0E94F8F520917709309178094091C5
:105A2000790950917A090E9431FA42E00E94417D41
:105A3000EAE7F3E08491882341F09091C00095FF5C
:105A4000FCCF8093C6003196F5CF2FB7F8946091C4
:105A500032097091330980913409909135092FBF33
:105A60000E94F8F520917B0930917C0940917D09D5
:105A700050917E090E9431FA42E00E94417D80915E
:105A8000C00085FFFCCF8AE08093C6000C944C38A0
:105A900010920F020C944C3881E080930F020C940A
:105AA0004C389091C00095FFFCCF8093C600819147
:105AB0008111F7CF8091C00085FFFCCF8AE08093F1
:105AC000C600E2E7F3E08491882341F09091C000A2
:105AD00095FFFCCF8093C6003196F5CF1E9B03C087
