:100000000C941A1F0C944B1F0C944B1F0C944B1FF9
:100010000C944B1F0C944B1F0C944B1F0C944B1FB8
:100020000C944B1F0C944B1F0C944B1F0C944B1FA8
:100030000C944B1F0D9482010C944B1F0C944B1F7E
:100040000C944B1F0C94F8570C944B1F0C944B1FA3
:100050000C944B1F0C944B1F0C9425340D94C2062A
:100060000C944B1F0C94AD610C944B1F0C944B1FC4
:100070000C944B1F0C944B1F0C944B1F0C944B1F58
:100080000C944B1F0C944B1F0C944B1F0C944B1F48
:100090000C944B1F0C944B1F0C944B1F0C944B1F38
:1000A0000C944B1F0C944B1F0C944B1F0C944B1F28
:1000B0000C944B1F0C944B1F0C944B1F0C944B1F18
:1000C0000C944B1F0C944B1F0C944B1F0C944B1F08
:1000D0000C944B1F0C944B1F0C944B1F0C944B1FF8
:1000E0000C944B1F084AD73B3BCE016E84BCBFFD2E
:1000F000C12F3D6C74319ABD56833DDA3D00C77FF8
:1001000011BED9E4BB4C3E916BAAAABE0000008090
:100110003F05A84CCDB2D44EB93836A9020C50B91F
:10012000918688083CA6AAAA2ABE000000803F004B
:100130000D94C7110D94EC000D9423010D94A500AE
:100140000D942D010D94E2000D9437010D942011B2
:100150000D943B180D94BE000D941D180D94D800FD
:100160000D9405010D9477100D94C8000D946A123A
:100170000D9419010D940F010D94D0000D94A00061
:100180000D94AA000D94F6000D94B4004E414E4912
:100190004E495459494E46CDCCCC3D0AD7233C1745
:1001A000B7D13877CC2B329595E6241FB14F0A0092
:1001B0000020410000C84200401C4620BCBE4CCA82
:1001C0001B0E5AAEC59D7453657474696E677320B7
:1001D00053746F7265640020440020490020202081
:1001E0004D33303120500050494420736574746998
:1001F0006E67733A00205A0020590020204D32309B
:1002000036205800486F6D65206F666673657420F0
:10021000286D6D293A00204500205A002058002002
:10022000420020540020204D3230352053004164DC
:1002300076616E636564207661726961626C657374
:100240003A20533D4D696E20666565647261746540
:1002500020286D6D2F73292C20543D4D696E20741C
:10026000726176656C2066656564726174652028CC
:100270006D6D2F73292C20423D6D696E696D756D12
:10028000207365676D656E742074696D6520286DD7
:1002900073292C20583D6D6178696D756D20585912
:1002A000206A65726B20286D6D2F73292C20205ACF
:1002B0003D6D6178696D756D205A206A65726B209D
:1002C000286D6D2F73292C2020453D6D6178696D57
:1002D000756D2045206A65726B20286D6D2F73291E
:1002E0000020540020204D323034205300416363FD
:1002F000656C65726174696F6E3A20533D6163632A
:10030000656C65726174696F6E2C20543D72657402
:100310007261637420616363656C65726174696F97
:100320006E00204500205A0020590020204D323018
:10033000312058004D6178696D756D2041636365AA
:100340006C65726174696F6E20286D6D2F73322930
:100350003A00204500205A0020590020204D32301C
:10036000332058004D6178696D756D206665656450
:10037000726174657320286D6D2F73293A002045D2
:100380003100204500205A0020590020204D3932EC
:1003900020580053746570732070657220756E6903
:1003A000743A0053746F7265642073657474696E77
:1003B000677320726574726965766564004861725E
:1003C00064636F6465642044656661756C74205372
:1003D000657474696E6773204C6F61646564006551
:1003E00063686F3A00000095430080894300007AFB
:1003F00043000000000000000000000000000000BA
:100400000000000000000000002F00534420707224
:10041000696E74696E67206279746520004E6F742E
:10042000205344207072696E74696E67002E004418
:10043000656C6574696F6E206661696C65642C20FB
:1004400046696C653A200046696C652064656C6598
:100450007465643A002E006F70656E206661696C89
:1004600065642C2046696C653A200050494420415F
:1004700075746F74756E652066696E6973686564FE
:10048000212050757420746865204B702C204B69B6
:1004900020616E64204B6420636F6E7374616E74B0
:1004A0007320696E746F20436F6E66696775726141
:1004B00074696F6E2E6800504944204175746F74E2
:1004C000756E65206661696C6564212074696D656F
:1004D0006F75740020403A006F6B20543A006F6BC8
:1004E00020423A00504944204175746F74756E651E
:1004F000206661696C6564212054656D7065726168
:100500007475726520746F6F206869676800204B8E
:10051000643A2000204B693A2000204B703A2000BA
:1005200020436C6173696320504944200020547556
:100530003A2000204B753A2000206D61783A200067
:10054000206D696E3A200020643A200020626961C3
:10055000733A20002200556E6B6E6F776E20636FCA
:100560006D6D616E643A2022004368616E6765209C
:1005700066696C616D656E74006C636420636F6E98
:1005800074726173742076616C75653A20007A5FCD
:100590006D696E3A2000795F6D696E3A2000785F70
:1005A0006D696E3A20005A3A00593A0020436F753F
:1005B0006E7420583A2000453A005A3A00593A00E1
:1005C000583A004649524D574152455F4E414D45BC
:1005D0003A4D61726C696E2056312E302E302E31BC
:1005E0003B205374616E646172642056322E302059
:1005F0004649524D574152455F55524C3A687474C2
:1006000070733A2F2F636F64652E616C6570686F2D
:10061000626A656374732E636F6D2F6469666675B5
:1006200073696F6E2F4D41524C494E2F2050524FDF
:10063000544F434F4C5F56455253494F4E3A312E1B
:1006400030204D414348494E455F545950453A5436
:10065000415A2045585452554445525F434F554ED8
:10066000543A3120555549443A633332353563396C
:10067000362D343039372D343838342D38656430E0
:100680002D6465643266663962616536310A0054EC
:10069000415A204F66662E0054415A2052656164CB
:1006A000792E0042656420646F6E652E0020423A08
:1006B0000020453A00543A00426564204865617460
:1006C000696E672E0020573A0020453A00543A00E0
:1006D00048656174696E6720646F6E652E004865B9
:1006E0006174696E672E2E2E002042403A00204031
:1006F0003A00202F003A00205400202F0020423AD8
:1007000000202F006F6B20543A002569206D696E20
:100710002C2025692073656300456E642066696C32
:1007200065206C69737400426567696E2066696C48
:1007300065206C697374004E6F206D6F76652E00B6
:10074000526573756D696E67207072696E740057BB
:1007500061697420666F7220757365722E2E2E008B
:10076000536C6565702E2E2E00526573656E643A6B
:1007700020006F6B004B494C4C45442E20005072BA
:10078000696E7465722068616C7465642E206B6993
:100790006C6C28292063616C6C6564210053544F94
:1007A000505045442E20005072696E74657220735B
:1007B000746F707065642064756520746F20657255
:1007C000726F72732E204669782074686520657296
:1007D000726F7220616E6420757365204D393939EE
:1007E00020746F20726573746172742E20285465B2
:1007F0006D706572617475726520697320726573BE
:1008000065742E2053657420697420616674657266
:100810002072657374617274696E6729000000A0AC
:10082000400000A040000080400000954300808907
:100830004300007A43FFFFFF2200656E7175656912
:100840006E672022002200656E717565696E6720F3
:1008500022007C3C3E5E2B3D3F2F5B5D3B2C2A22E1
:100860005C0020746F6F206C6F6E67206578747207
:100870007573696F6E2070726576656E746564005D
:1008800020636F6C6420657874727573696F6E2075
:1008900070726576656E746564006563686F3A00B2
:1008A00024F4D43050C38E20C2A24017828B701122
:1008B000127A910D816CD90AA861E108C7586607C0
:1008C000615143061E4B5D05C145A7041A41110441
:1008D000093D9803713931034036DB0265339102DB
:1008E000D4305402802E1D02632CEE01752AC501FE
:1008F000B028A001102781018F2564012B244B0112
:10090000E0223401AC211F018D200D01801FFC006D
:10091000841EED00971DDF00B81CD200E61BC60048
:10092000201BBC00641AB200B219A8000A19A0006A
:100930006A189900D117910040178B00B5168400F2
:1009400031167E00B31579003A157300C7146F0095
:1009500058146A00EE1366008813630025135E00C6
:10096000C7125B006C12570015125400C1115100E0
:1009700070114F0021114B00D61049008D10470017
:100980004610440002104200C00F4000800F3E009D
:10099000420F3C00060F3B00CB0E3800930E370091
:1009A0005C0E3500270E3400F30D3200C10D31000E
:1009B000900D3000600D2E00320D2D00050D2C0025
:1009C000D90C2B00AE0C2900850C29005C0C2700EB
:1009D000350C27000E0C2600E80B2400C40B240065
:1009E000A00B23007D0B23005A0B2100390B2100A3
:1009F000180B2000F80A1F00D90A1E00BB0A1E00AF
:100A00009D0A1D00800A1D00630A1C00470A1B0086
:100A10002C0A1B00110A1A00F7091A00DD09190037
:100A2000C4091900AB091900920917007B091800C5
:100A3000630917004C091600360916002009160034
:100A40000A091500F5081500E0081400CC08140088
:100A5000B8081400A4081400900813007D081200C0
:100A60006B081300580812004608120034081100E1
:100A7000230811001208110001081100F0071000EE
:100A8000E0071000D0071000C0071000B0070F00EB
:100A9000A107100091070E0083070F0074070F00D5
:100AA00065070E0057070E0049070E003B070D00B3
:100AB0002E070E0020070D0013070D0006070D007E
:100AC000F9060C00ED060D00E0060C00D4060C0043
:100AD000C8060C00BC060C00B0060C00A4060B00F7
:100AE00099060C008D060B0082060B0077060B00A2
:100AF0006C060B0061060A0057060B004C060A0044
:100B000042060A0038060A002E060A0024060A00D9
:100B10001A060A001006090007060A00FD0509006A
:100B2000F4050900EB050900E2050900D9050900F3
:100B3000D0050900C7050900BE050900B505080074
:100B4000AD050800A50509009C05080094050800EE
:100B50008C050800840508007C0508007405080061
:100B60006C050700650508005D05070056050800CF
:100B70004E05070047050700400508003805070037
:100B8000310507002A050700230507001C0506009C
:100B9000160507000F0507000805060002050700F7
:100BA000FB040600F5040700EE040600E804060056
:100BB000E2040700DB040600D5040600CF040600AB
:100BC000C9040600C3040600BD040600B7040600FD
:100BD000B1040500AC040600A6040600A00405004C
:100BE0009B04060095040500900406008A04050095
:100BF00085040500800406007A04050075040500DC
:100C0000700405006B04050066040500610405001E
:100C10005C04050057040500520405004D0405005E
:100C200048040500430405003E0404003A0405009E
:100C300035040500300404002C04050027040400DA
:100C4000230405001E0404001A0404001604050011
:100C5000110404000D040400090405000404040048
:100C600000040400FC030400F8030400F40304007F
:100C7000F0030400EC030400E8030400E4030400B0
:100C8000E0030400DC030400D8030400D4030400E0
:100C9000D0030400CC030400C8030300C503030011
:100CA00024F404D9201BC40C5C0E9804C4095F0210
:100CB00065077101F405F900FB04B30048048700DF
:100CC000C10369005803550003034500BE023A0002
:100CD0008402310053022A00290225000402200068
:100CE000E4011C00C8011900AF01170098011400AD
:100CF00084011300710110006101100051010E0008
:100D000043010D0036010B002B010B0020010B00ED
:100D1000150109000C01090003010800FB0008008F
:100D2000F3000800EB000700E4000600DE00060008
:100D3000D8000600D2000600CC000500C700050060
:100D4000C2000500BD000400B9000400B5000400A5
:100D5000B1000400AD000400A9000400A5000300D8
:100D6000A20003009F0004009B0003009800030002
:100D70009500020093000300900003008D00020024
:100D80008B0003008800020086000200840003003C
:100D9000810002007F0002007D0002007B00020053
:100DA0007900020077000100760002007400020062
:100DB00072000100710002006F0002006D0001006E
:100DC0006C0002006A000100690002006700010077
:100DD000660001006500010064000200620001007D
:100DE00061000100600001005F0002005D00010081
:100DF0005C0001005B0001005A0001005900010085
:100E00005800010057000100560001005500010084
:100E10005400010053000000530001005200010083
:100E200051000100500001004F0001004E00000081
:100E30004E0001004D0001004C0001004B0000007D
:100E40004B0001004A000100490001004800000079
:100E50004800010047000100460000004600010074
:100E6000450000004500010044000100430000006F
:100E70004300010042000000420001004100000068
:100E800041000100400001003F0000003F00010060
:100E90003E0000003E0001003D0000003D0001005A
:100EA0003C0000003C0000003C0001003B00000052
:100EB0003B0001003A0000003A0001003900000048
:100EC000390001003800000038000000380001003F
:100ED0003700000037000100360000003600000037
:100EE000360001003500000035000000350001002B
:100EF0003400000034000000340001003300000022
:100F00003300000033000100320000003200000016
:100F1000320001003100000031000000310001000A
:100F20003000000030000000300001002F00000001
:100F30002F0000002F0000002F0001002E000000F5
:100F40002E0000002E0001002D0000002D000000EA
:100F50002D0000002D0001002C0000002C000000DE
:100F60002C0000002C0001002B0000002B000000D2
:100F70002B0000002B0001002A0000002A000000C6
:100F80002A0000002A0001002900000029000000BA
:100F900029000000290000002900010028000000AD
:100FA00028000000280000002800000028000100A0
:100FB0002700000027000000270000002700000095
:100FC0002700010026000000260000002600000087
:100FD000260000002600010025000000250000007A
:100FE000250000002500000025000000250001006C
:100FF0002400000024000000240000002400000061
:101000002400010023000000230000002300000052
:101010002300000023000000230000002300010043
:101020002200000022000000220000002200000038
:101030002200000022000100210000002100000029
:10104000210000002100000021000000210000001C
:10105000210001002000000020000000200000000E
:101060002000000020000000200000002000000000
:10107000200001001F0000001F0000001F000000F2
:101080001F0000001F0000001F0000001F000100E3
:101090001E0000001E0000001E0000001E000000D8
:1010A0004D383420582059205A20450045313A20E7
:1010B0000045303A20005A3A2000593A2000583A68
:1010C00020004D53312C4D53322050696E730A006D
:1010D0001000AD0330016A0150022B0170030A01B8
:1010E0009004F500B005E500D006D800F007CE006A
:1010F0001009C500300ABE00500BB700700CB100DB
:10110000900DAB00B00EA600D00FA200F0109D0015
:1011100010129900301395005014920070158E0033
:1011200090168B00B0178700D0188400F01981004A
:10113000101B7E00301C7B00501D7900701E760055
:10114000901F7300B0207000D0216E00F0226B0061
:101150001024690030256600502663007027610066
:1011600090285E00B0295C00D02A5900F02B560070
:10117000102D5400302E5100502F4E0070304B0077
:1011800090314800B0324500D0334200F0343E0088
:1011900010363B00303737005038330070392E009E
:1011A000903A2900B03B2300D03C1B00F03D1100D9
:1011B000103F0100F03F00004572723A204D415847
:1011C00054454D50003A204578747275646572201C
:1011D0007377697463686564206F66662E204D417D
:1011E0005854454D50207472696767657265642074
:1011F00021004572723A204D494E54454D50003AF7
:1012000020457874727564657220737769746368B9
:101210006564206F66662E204D494E54454D502022
:101220007472696767657265642021004572723A5D
:10123000204D415854454D50204245440054656D61
:10124000706572617475726520686561746564208B
:10125000626564207377697463686564206F66668D
:101260002E204D415854454D502074726967676572
:101270007265642021210001050800FF060121029A
:101280003520FFFF07FF06FF090050221656808019
:1012900080800080153353A0A0A00257575050F80B
:1012A00050F850500257572070A070287020133506
:1012B0005580A040A02002475740A0A040A0A050C9
:1012C00025135380808012265640808080804012F3
:1012D00026568040404040800245559060F0609026
:1012E0000255552020F820201133536040800441DE
:1012F00051F011335340E040024656101020408018
:101300008012365640A0A0A0A04012365640C040E1
:101310004040E00246566090106080F0024656F071
:1013200020601090600246562060A0F02020024607
:1013300056F080E01090600246566080E090906029
:10134000024656F0102020404002465660906090C1
:101350009060024656609090701060122555C0C093
:1013600000C0C011365660600060408012365620C2
:101370004080804020034353F000F01236568040F6
:101380002020408012365640A0204000400158588E
:10139000304898A8A8904030024656609090F0904F
:1013A00090024656E090E09090E0024656609080B1
:1013B000809060024656E090909090E0024656F091
:1013C00080E08080F0024656F080E0808080024617
:1013D00056609080B090600246569090F090909049
:1013E000123656E040404040E00246567020202031
:1013F000A04002465690A0C0A0A090024656808011
:10140000808080F002465690F0F090909002465610
:1014100090D0F0B0B09002465660909090906002EC
:101420004656E09090E08080014757609090D0B0A1
:101430006010024656E09090E09090024656609010
:1014400040209060123656E04040404040024656F0
:1014500090909090906002465690909090606002BC
:101460004656909090F0F0900246569090606090B2
:1014700090025656888850202020024656F01020B0
:101480004080F0123656E080808080E00246568030
:101490008040201010123656E020202020E0163226
:1014A0005240A0014151F016225280400244547033
:1014B0009090700246568080E09090E01234546024
:1014C0008080600246561010709090700244546004
:1014D000B0C060024656205040E040400145556093
:1014E000907010600246568080E0909090123656C0
:1014F0004000C04040E01137572000202020A0408D
:10150000024656808090E09090123656C04040408F
:1015100040E0025454D0A8A8A8024454E09090900F
:1015200002445460909060014555E090E080800155
:1015300045557090701010024454A0D08080123431
:101540005460C020C00246564040E0405020024453
:101550005490909070123454A0A0A040025454882B
:10156000A8A8500244549060609001455590907036
:101570009060024454F02040F0024757304020C0B1
:10158000204030221656808080808080024757C0DD
:101590002040304020C006425250A0FFFFFFFFFF16
:1015A000FFFFFFFFFFFFFFFFFFFFFFFFFFFFFFFF4B
:1015B000FFFFFFFFFFFFFFFFFFFFFFFF09005022BC
:1015C00016568000808080800146562070A0A07052
:1015D000200246562050E04050A0025555887050D9
:1015E00070880256568850F820F8202217578080BD
:1015F00080008080800247577080E0907010E01774
:101600003151A002565670A8C8C8A870143555604C
:10161000A06000E003435350A050123353E0202059
:10162000143151E002565670E8D8E8D8701731519D
:10163000E015335340A04012355540E04000E0141F
:10164000355540A02040E0143555C020C020C016BC
:1016500022524080014555909090E0800256567885
:10166000E8E868282824115180112252408014355E
:101670005540C04040E014355540A04000E00343D1
:1016800053A050A0024757808080A060F0200247FE
:10169000578080A0D010207002475780408060A003
:1016A000F02012365640004080A0400247574020AC
:1016B0006090F0909002475720406090F090900228
:1016C000475760906090F0909002475750A060900C
:1016D000F0909002475790006090F090900247572A
:1016E00060906090F0909002465670A0A0F0A0B07C
:1016F000014757609080809060400247574020F03B
:1017000080E080F00247572040F080E080F0024700
:10171000576090F080E080F00247579000F080E042
:1017200080F01237578040E0404040E012375720A9
:1017300040E0404040E012375740A0E0404040E0E9
:10174000123757A000E0404040E00256567048E88B
:1017500048487002475750A090D0B0909002475729
:101760004020609090906002475720406090909099
:10177000600247576090609090906002475750A079
:101780006090909060024757900060909090601237
:101790003353A040A002465670B0B0D0D0E002470C
:1017A0005740209090909060024757204090909032
:1017B00090600247576090909090906002475790D9
:1017C0000090909090600257571020885020202061
:1017D00002465680E09090E0800246566090A0A0BD
:1017E00090A0024757402000709090700247572009
:1017F0004000709090700247572050007090907099
:1018000002475750A00070909070024656500070EA
:10181000909070024757609060709090700254549E
:10182000F068B078113555608080604002475740BD
:10183000200060B0C06002475720400060B0C06028
:1018400002475760900060B0C0600246565000608A
:10185000B0C060123757804000C04040E012375798
:10186000204000C04040E012375740A000C0404038
:10187000E0123656A000C04040E0024757A040A00A
:101880001070906002475750A000E090909002477F
:1018900057402000609090600247572040006090C1
:1018A00090600247576090006090906002475750E8
:1018B000A000609090600246569000609090601288
:1018C00035554000E0004002445470B0D0E002477B
:1018D0005740200090909070024757204000909011
:1018E000907002475760900090909070024656901A
:1018F0000090909070014858204000909070906047
:101900000147578080E090E0808001475790009029
:1019100090709060000000000000000000000000D7
:1019200000000000000000000000000000000000B7
:10193000000000000000000C000000000000000C8F
:101940000000000000000012000000000000002362
:101950000000000000000021000000000000004C1A
:10196000800000000000005E800000000000009287
:1019700040000000000000A1400000000000012124
:10198000200000000000027F900000000000020024
:1019900010000000000007FFF80000000000040035
:1019A000080000000000080004000000000008001B
:1019B0000600000000001000020000000000301EC1
:1019C000010000000000207F81000000000041FFB6
:1019D000E0800000000043FCF08000000000873B36
:1019E0007840000000018EDBFC60000000010FEB7E
:1019F000CC20000000021FEDB610000000021FDE28
:101A0000B6100000000439CD7F080000000436E065
:101A1000FF08000000087EC0BB84000000187F00A3
:101A20005D86000000107FC0ED82000000203CC0F9
:101A30007301000000203B337F01000000701BE7B2
:101A40007E03800000C81DEEDE04C00000880FDEAB
:101A5000DC04400001240FDF3C092000012607DBE5
:101A6000F8192000027203E7F0139000025101FF01
:101A7000E02290000489007F802448000904801E31
:101A8000004824000BFE400000DFF400100040007E
:101A9000008002001FFFFFFFFFFFFE0000000000AC
:101AA0000000000000000000000000000000000036
:101AB000000000001022103C3C0E1F0010221004F9
:101AC0002211040010221008221104001022100814
:101AD0003C110400102210102211040010221020CA
:101AE000221104001E1C1E3C3C0E040000000000DD
:101AF00000000000000000000000000000000000E6
:101B000000000000000000000000000000000000D5
:101B100000000000000000000000000000000000C5
:101B200000000000000000000000000000000000B5
:101B300000000000000000000000000000000000A5
:101B40000000000000000000000000000000000095
:101B500000005900B02000B02000B02000B02000EC
:101B60002D2D3A2D2D000000000000000000000087
:101B700000007FFFE0000000000000000000000007
:101B8000007000E000000000000000000000000005
:101B900061F860000000000000000000000000414B
:101BA000F82000000000000000000000000040F0ED
:101BB0002000000000000000000000000040602045
:101BC0000000000000000000000000005801A07F9D
:101BD00080003FC0003FC0004104005C63A0FBC028
:101BE0000079E00079E0002082005EF7A0F3C000F9
:101BF00076E00076E0002082005EF7A0EBC0007E79
:101C0000E0007EE0004104005C63A07B80003DC0FA
:101C10000039C0008208005801A07B80003BC00052
:101C20003EC001041000406020FBC00077E0007659
:101C3000E00104100040F020FBC00070E00079E0FB
:101C40000082080041F820FFC0007FE0007FE00034
:101C500041040061F8603F00001F80001F80000009
:101C600000007000E01E00000F00000F0001FFFFE9
:101C7000807FFFE00C0000060000060001FFFF80EF
:101C80000000000000000000000000000000007FD5
:101C9000FFE00000000000000000000000007000F5
:101CA000E0000000000000000000000000630C6085
:101CB000000000000000000000000000470E2000AF
:101CC00000000000000000000000004F0F20000096
:101CD000000000000000000000005F0FA0000000F6
:101CE0000000000000000000005E07A07F80003FB1
:101CF000C0003FC000410400406020FBC00079E00C
:101D00000079E00020820040F020F3C00076E0007F
:101D100076E00020820040F020EBC0007EE0007EF4
:101D2000E0004104004060207B80003DC00039C0DD
:101D3000008208005E07A07B80003BC0003EC0011F
:101D40000410005F0FA0FBC00077E00076E0010404
:101D500010004F0F20FBC00070E00079E000820807
:101D600000470E20FFC0007FE0007FE0004104003C
:101D7000630C603F00001F80001F800000000070A7
:101D800000E01E00000F00000F0001FFFF807FFF3A
:101D9000E00C0000060000060001FFFF80000000CC
:101DA0004D383420582059205A2045004E6F20438A
:101DB000617264005072696E742066726F6D205398
:101DC000440053746F70205072696E7400526573D2
:101DD000756D65205072696E740050617573652071
:101DE0005072696E7400436F6E66696775726174D4
:101DF000696F6E0054656D7065726174757265000F
:101E00004D6F76656D656E740054756E6500496E34
:101E1000666F2073637265656E004D363030004327
:101E200068616E67652066696C616D656E740046F9
:101E30006C6F7700466C6F770046616E207370653B
:101E400065640046616E2073706565640042656478
:101E500000426564004E6F7A7A6C65004E6F7A7A44
:101E60006C65005370656564005370656564004D72
:101E700061696E004D6F7665204178697300473265
:101E800038004175746F20486F6D65004D3834001F
:101E900044697361626C6520537465707065727318
:101EA000004D61696E00436F6F6C646F776E005414
:101EB000474C41534500504F4C5943415242004C0E
:101EC0004159574F4F44004C4159425249434B00EE
:101ED0004E2D56454E5400414C4C4F59203931300F
:101EE0000050435450450042524944474500414246
:101EF00053004849505300504C4100437573746F70
:101F00006D2054656D70004D61696E005800590078
:101F10005A004578747275646572004578747275FC
:101F2000646572004D6F7665205A004D6F766520AE
:101F300059004D6F76652058004D6F7665204178C9
:101F40006973004D6F766520302E316D6D004D6FD9
:101F5000766520316D6D004D6F76652031306D6D89
:101F6000004D6F76656D656E7400526573746F72A7
:101F700065204661696C73616665004C6F61642021
:101F80006D656D6F72790053746F7265206D656D4C
:101F90006F727900416476616E6365642053657485
:101FA00074696E6773004D61696E0054474C41530C
:101FB0004520436F6E6600504F4C594341524220BA
:101FC000436F6E66004C4159425249434B20436F68
:101FD0006E66004E2D56454E5420436F6E6600418E
:101FE0004C4C4F592039313020436F6E66005043BE
:101FF00054504520436F6E66004252494447452085
:10200000436F6E660041425320436F6E660048493D
:10201000505320436F6E6600504C4120436F6E66F4
:10202000005049442D43005049442D430050494439
:102030002D44005049442D44005049442D4900503E
:1020400049442D49005049442D50005049442D50D9
:102050000020022046616374002002204661637400
:10206000002002204D6178002002204D6178002080
:1020700002204D696E002002204D696E004F666699
:10208000004F6E20004F6666004F6E200046616E66
:102090002073706565640046616E207370656564C9
:1020A0000042656400426564004E6F7A7A6C650098
:1020B0004E6F7A7A6C650054656D706572617475E7
:1020C00072650053746F7265206D656D6F72790073
:1020D00042656400426564004E6F7A7A6C65004E1A
:1020E0006F7A7A6C650046616E2073706565640076
:1020F00046616E20737065656400437573746F6D1F
:102100002054656D700053746F7265206D656D6F3E
:1021100072790042656400426564004E6F7A7A6CA1
:1021200065004E6F7A7A6C650046616E207370654B
:1021300065640046616E2073706565640043757365
:10214000746F6D2054656D700053746F7265206DEF
:10215000656D6F72790042656400426564004E6F80
:102160007A7A6C65004E6F7A7A6C650046616E20F3
:1021700073706565640046616E2073706565640008
:10218000437573746F6D2054656D700053746F7276
:1021900065206D656D6F727900426564004265640B
:1021A000004E6F7A7A6C65004E6F7A7A6C650046E5
:1021B000616E2073706565640046616E20737065A2
:1021C000656400437573746F6D2054656D700053C2
:1021D000746F7265206D656D6F7279004265640081
:1021E000426564004E6F7A7A6C65004E6F7A7A6C45
:1021F000650046616E2073706565640046616E20FF
:10220000737065656400437573746F6D2054656DFC
:10221000700053746F7265206D656D6F7279004246
:10222000656400426564004E6F7A7A6C65004E6F9B
:102230007A7A6C650046616E20737065656400464D
:10224000616E20737065656400437573746F6D20F3
:1022500054656D700053746F7265206D656D6F729B
:10226000790042656400426564004E6F7A7A6C655D
:10227000004E6F7A7A6C650046616E2073706565FA
:10228000640046616E207370656564004375737405
:102290006F6D2054656D700053746F7265206D65AD
:1022A0006D6F72790042656400426564004E6F7A1A
:1022B0007A6C65004E6F7A7A6C650046616E2073A9
:1022C000706565640046616E2073706565640043E7
:1022D0007573746F6D2054656D700053746F726503
:1022E000206D656D6F72790042656400426564001F
:1022F0004E6F7A7A6C65004E6F7A7A6C6500466133
:102300006E2073706565640046616E20737065654C
:102310006400437573746F6D2054656D7000537461
:102320006F7265206D656D6F727900426564004261
:102330006564004E6F7A7A6C65004E6F7A7A6C65D0
:102340000046616E2073706565640046616E20739F
:102350007065656400437573746F6D2054656D70AE
:10236000004531737470732F6D6D00453173747057
:10237000732F6D6D004573746570732F6D6D00451F
:1023800073746570732F6D6D005A73746570732F5D
:102390006D6D005A73746570732F6D6D0059737491
:1023A0006570732F6D6D005973746570732F6D6D4B
:1023B000005873746570732F6D6D00587374657079
:1023C000732F6D6D00412D726574726163740041ED
:1023D0002D7265747261637400416D6178206500CF
:1023E000416D6178206500416D6178207A00416D12
:1023F0006178207A00416D6178207900416D6178C3
:10240000207900416D6178207800416D61782078F5
:10241000005654726176206D696E00565472617672
:10242000206D696E00566D696E00566D696E0056BE
:102430006D6178206500566D6178206500566D618C
:1024400078207A00566D6178207A00566D61782088
:102450007900566D6178207900566D61782078009A
:10246000566D617820780056652D6A65726B00564E
:10247000652D6A65726B00567A2D6A65726B00561F
:102480007A2D6A65726B005678792D6A65726B00D9
:102490005678792D6A65726B00416363656C004103
:1024A0006363656C005A204F6666736574005A203A
:1024B0004F666673657400436F6E66696775726117
:1024C00074696F6E0043616E6E6F7420656E746523
:1024D00072207375626469723A20004D3234004D87
:1024E000323320257300F92E2E004D61696E0000F5
:1024F000060900FE06018902FE20FFFE07FE06FE19
:1025000000000006000701060606020080808080A9
:102510000080030303060103A0A0A005070706002F
:10252000FF5050F850F850500509090600FE207081
:10253000A8A07028A870200608080600FF40A84838
:1025400010204854080507070600FF609090609827
:1025500090680103030602038080800207070602D9
:10256000FF408080808080400207070602FF804095
:1025700040404040800505050600008850F850881E
:102580000505050600002020F820200204040602AC
:10259000FEC0404080050101060002F8020202066A
:1025A0000200C0C004060606010010102040808012
:1025B00004060606010060909090906003060606EF
:1025C000010040C0404040E0040606060100609063
:1025D000102040F0040606060100F020601010E014
:1025E00005060606000010305090F8100406060696
:1025F0000100F080E01010E0040606060100608093
:10260000E0909060040606060100F01010204040A3
:1026100004060606010060906090906004060606BD
:102620000100609090701060020505060200C0C0B5
:1026300000C0C00207070602FEC0C000C0404080C4
:1026400005050506000018608060180503030600F4
:1026500001F800F8050505060000C0300830C00488
:10266000070706010060901060400040050606065E
:1026700000007090A8B0807005060606000020508B
:1026800088F88888050606060000F088F08888F03B
:10269000040606060100609080809060040606062D
:1026A0000100E090909090E0040606060100F080A2
:1026B000E08080F0040606060100F080E080808063
:1026C000040606060100609080B0906004060606CD
:1026D00001009090F0909090030606060100E04003
:1026E000404040E0050606060000381010109060DB
:1026F00004060606010090A0C0A0909004060606FD
:1027000001008080808080F005060606000088D8E1
:10271000A8A8888804060606010090D0B090909082
:10272000050606060000708888888870040606067C
:102730000100E09090E080800407070601FF6090B0
:1027400090D0B06010040606060100E09090E09082
:102750009004060606010060904020906005060681
:10276000060000F820202020200406060601009024
:102770009090909060040606060100909090F060A2
:10278000600506060600008888A8A8D88805060601
:1027900006000088502020508805060606000088A4
:1027A0008850202020040606060100F010204080FA
:1027B000F0030606060100E080808080E004060643
:1027C000060100808040201010030606060100E08C
:1027D00020202020E0050303060003205088050187
:1027E000010600FEF802020206020480400404040E
:1027F000060100709090700406060601008080E0DB
:102800009090E004040406010070808070040606C5
:10281000060100101070909070040404060100601E
:10282000B0C070040606060100205040E04040049D
:1028300006060601FE609090701060040606060110
:10284000008080E09090900306060601004000C0E2
:102850004040E00308080601FE200060202020A080
:10286000400406060601008080A0C0A09003060672
:10287000060100C040404040E0050404060000D0CE
:10288000A8A888040404060100E0909090040404C1
:10289000060100609090600406060601FEE090903C
:1028A000E080800406060601FE709090701010040F
:1028B0000404060100A0D080800404040601007016
:1028C000C030E00406060601004040E0405020040D
:1028D0000404060100909090700404040601009026
:1028E00090606005040406000088A8A85004040451
:1028F000060100906060900406060601FE9090902C
:10290000709060040404060100F02040F003070703
:10291000060100204040804040200107070602FFDA
:10292000808080808080800307070601008040400F
:102930002040408004020206010350A0FFFFFFFF79
:10294000FFFFFFFFFFFFFFFFFFFFFFFFFFFFFFFF97
:10295000FFFFFFFFFFFFFFFFFFFFFFFFFF00000084
:1029600006000701060606020080008080808004C1
:1029700006060601FF2070A0A070200507070600CC
:10298000FF304840F04040F8050505060000A8501B
:102990008850A80506060600008850F820F8200197
:1029A00007070602FF8080800080808004070706FA
:1029B00001FF708060906010E0030101060105A036
:1029C000060707060000788494A49484780305051C
:1029D00006010160A06000E0050505060000285022
:1029E000A05028040303060100F0101004010106A2
:1029F0000102F00607070600007884B4A4A48478D6
:102A0000040101060105F004030306010260906061
:102A10000507070600FF2020F8202000F803050521
:102A200006010140A02040E0030505060101C02089
:102A30004020C0020202060204408004050506018F
:102A4000FF9090B0D08005060606000078E8E868A0
:102A50002828010101060202800202020602FE404D
:102A60008003050506010140C04040E0030505065E
:102A7000010140A04000E0050505060000A0502827
:102A800050A00508080600FF40C040507030781084
:102A90000508080600FF40C04050680810380508C7
:102AA000080600FFC0204030F03078100407070609
:102AB00001002000206080906005070706000040AC
:102AC000202050708888050707060000102020503D
:102AD00070888805070706000020502050708888FD
:102AE0000507070600002850205070888805070752
:102AF0000600005000205070888805070706000077
:102B00002050205070888805060606000078A0F046
:102B1000A0A0B80408080601FE60908080906020A4
:102B2000400407070601004020F080E080F0040721
:102B3000070601002040F080E080F004070706014E
:102B4000002050F080E080F00407070601005000EC
:102B5000F080E080F00307070601008040E040407D
:102B600040E00307070601002040E0404040E0034A
:102B7000070706010040A0E0404040E003070706C9
:102B80000100A000E0404040E0050606060000709D
:102B900048E848487004070706010050A090D0B0EC
:102BA0009090040707060100402060909090600418
:102BB0000707060100204060909090600407070618
:102BC00001002050609090906004070706010050BB
:102BD000A06090909060040707060100500060908C
:102BE0009090600505050600008850205088040874
:102BF000080601FF1070B0B0D0D0E08004070706CF
:102C0000010040209090909060040707060100208A
:102C1000409090909060040707060100205090902B
:102C2000909060040707060100500090909090601B
:102C30000507070600001020885020202004060603
:102C400006010080E09090E0800406060601006026
:102C500090A0A090A00407070601004020007090FB
:102C600090700407070601002040007090907004E7
:102C700007070601002050007090907004070706B7
:102C8000010050A0007090907004060606010050EC
:102C9000007090907004070706010020502070908B
:102CA000907005040406000070A8B07804060606BB
:102CB00001FE70808070204004070706010040205C
:102CC0000060B0C07004070706010020400060B03B
:102CD000C07004070706010020500060B0C07004F7
:102CE0000606060100500060B0C070030707060129
:102CF00000804000C04040E003070706010020407C
:102D000000C04040E003070706010040A000C040AB
:102D100040E0030606060100A000C04040E00407B2
:102D200007060100306010709090600407070601EC
:102D30000050A000E090909004070706010040209A
:102D4000006090906004070706010020400060903A
:102D50009060040707060100205000609090600416
:102D6000070706010050A000609090600406060668
:102D700001005000609090600505050600002000ED
:102D8000F8002004040406010070B0D0E004070736
:102D90000601004020009090907004070706010093
:102DA000204000909090700407070601002050001A
:102DB000909090700406060601005000909090706C
:102DC0000409090601FE2040009090907090600474
:102DD00008080601FE8080E09090E08080040808EA
:102DE0000601FE50009090907090601000C9021093
:102DF000012C014001220170011801B0010E01F007
:102E00000104015002FA00B002F0003003E600D0E5
:102E100003DC009004D2007005C800A006BE0000CC
:102E200008B400B009AA00D00BA000600E960060A4
:102E3000118C000015820020197800C01D6E00A0C2
:102E4000226400B0275A00902C500000314600E068
:102E5000343C0010383200903A2800603C1E00A03C
:102E60003D1400803E0A00203F0000436172642050
:102E700072656D6F766564004361726420696E737C
:102E8000657274656400000020002300260029009C
:102E90002C002F003200000100000301060109018F
:102EA00000002100240027002A002D0030003300FC
:102EB00001010000040107010A012020506C616E2D
:102EC0006E657242756666657242797465733A2002
:102ED000002046726565204D656D6F72793A20005D
:102EE0004D6179203238203230323000436F6D70BE
:102EF000696C65643A200028416C657068204F62F7
:102F00006A656374732C20496E632C2054415A20E7
:102F100020636F6E6669672900207C2041757468A4
:102F20006F723A20004D61792032382032303230D1
:102F30002030383A31363A333500204C61737420F2
:102F4000557064617465643A2000312E302E302E45
:102F500031004D61726C696E200020536F6674778A
:102F600061726520526573657400205761746368EF
:102F7000646F67205265736574002042726F776ECC
:102F8000206F7574205265736574002045787465F0
:102F9000726E616C20526573657400506F77657254
:102FA0005570007374617274004D38342058205984
:102FB000205A2045006563686F3A00256920686FD4
:102FC000757273202569206D696E75746573004490
:102FD0006F6E65207072696E74696E672066696CC9
:102FE000650053544F505045442E20005072696E76
:102FF0007465722073746F707065642064756520E9
:10300000746F206572726F72732E20466978207417
:103010006865206572726F7220616E6420757365D9
:10302000204D39393920746F207265737461727460
:103030002E202854656D7065726174757265206903
:10304000732072657365742E205365742069742033
:1030500061667465722072657374617274696E67FB
:1030600029006F6B004E6F204C696E65204E756DA8
:10307000626572207769746820636865636B737535
:103080006D2C204C617374204C696E653A20004EA3
:103090006F20436865636B73756D20776974682072
:1030A0006C696E65206E756D6265722C204C617363
:1030B00074204C696E653A2000636865636B7375B4
:1030C0006D206D69736D617463682C204C6173743D
:1030D000204C696E653A20004C696E65204E756D16
:1030E000626572206973206E6F74204C6173742066
:1030F0004C696E65204E756D6265722B312C204CCB
:10310000617374204C696E653A20004572726F726B
:103110003A004D313130006572726F7220777269FA
:1031200074696E6720746F2066696C6500656E64F3
:1031300073746F7073206869743A205A00205A3A89
:1031400000656E6473746F7073206869743A2059F7
:103150000020593A00656E6473746F70732068695B
:10316000743A20580020583A00656E6473746F708A
:1031700073206869743A20006563686F3A00446F91
:103180006E6520736176696E672066696C652E00D6
:103190006F6B004D3239004175746F74656D70004E
:1031A0000102102020080810204010204080020159
:1031B000020108040201010204081020408080403E
:1031C000201008040201800402018040201008043D
:1031D00002010804020101020408102040800102DB
:1031E00004081020408000002200250028002B0049
:1031F0002E003100340002010000050108010B011E
:1032000005050505070508080808020202020A0A62
:103210000808040404040101010101010101030380
:10322000030303030303040707070C0C0C0C0C0C2B
:103230000C0C0202020206060606060606060B0B28
:103240000B0B0B0B0B0B0257726974696E672074C2
:103250006F2066696C653A20002E006F70656E20E5
:103260006661696C65642C2046696C653A20002EA5
:10327000006F70656E206661696C65642C2046691C
:103280006C653A200046696C652073656C656374F3
:103290006564002053697A653A200046696C6520B0
:1032A0006F70656E65643A20002E006F70656E2049
:1032B0006661696C65642C2046696C653A20004E35
:1032C0006F772066726573682066696C653A2000C6
:1032D0004E6F7720646F696E672066696C653A206F
:1032E000002220706F73002220706172656E743A44
:1032F0002200535542524F5554494E452043414CAC
:103300004C207461726765743A2200747279696E38
:103310006720746F2063616C6C207375622D676326
:103320006F64652066696C657320776974682074C2
:103330006F6F206D616E79206C6576656C732E20E1
:103340004D4158206C6576656C2069733A004D32AA
:1033500034004D3233202573006175746F25692E5A
:1033600067004572726F723A0000000A0B02090C86
:103370000D0E08070304010000000000000000001B
:10338000000000000000000000000000000000003D
:1033900000000000001211100000000000000000FA
:1033A00000000000000000000000000000000053CA
:1033B000442063617264206F6B006F70656E526FA2
:1033C0006F74206661696C656400766F6C756D65FD
:1033D0002E696E6974206661696C6564004572725D
:1033E0006F723A00534420696E6974206661696C9B
:1033F000006563686F3A0000060900FE0701990343
:103400002B20FFFE08FE07FE00000006000001075B
:10341000070602008080808080008003030306018D
:1034200004A0A0A00507070600005050F850F8506F
:10343000500507070600002070A0702870200507BF
:103440000706000048A8502050A89005070706006E
:103450000040A0A040A890680103030602048080F9
:10346000800307070601002040808080402003077A
:103470000706010080402020204080050505060049
:10348000018850F850880505050600012020F82025
:10349000200303030601FF604080050101060003CD
:1034A000F80303030601FF40E0400507070600009C
:1034B000080810204080800507070600002050887B
:1034C000888850200507070600002060A0202020E3
:1034D000F8050707060000708808304080F80507E7
:1034E00007060000F8081030088870050707060076
:1034F0000010305090F81010050707060000F88003
:10350000B0C8088870050707060000304080B0C8C2
:103510008870050707060000F808101020404005D5
:1035200007070600007088887088887005070706FE
:103530000000708898680810600307070601FF40C4
:10354000E0400040E0400307070601FF40E0400084
:1035500060408004070706010010204080402010D2
:10356000050303060002F800F804070706010080BF
:1035700040201020408005070706000070881020BA
:10358000200020050707060000708898A8B080700A
:1035900005070706000020508888F8888805070777
:1035A000060000F04848704848F00507070600008C
:1035B00070888080808870050707060000F0484802
:1035C000484848F0050707060000F88080F0808032
:1035D000F8050707060000F88080F0808080050766
:1035E000070600007088808098887005070706002D
:1035F00000888888F8888888030707060100E0406B
:1036000040404040E0050707060000381010101049
:1036100090600507070600008890A0C0A09088056C
:103620000707060000808080808080F80507070675
:1036300000008888D8A888888805070706000088C1
:1036400088C8A898888805070706000070888888B9
:10365000888870050707060000F08888F080808061
:103660000508080600FF7088888888A87008050784
:1036700007060000F08888F0A0908805070706007C
:103680000070888070088870050707060000F82021
:1036900020202020200507070600008888888888C9
:1036A000887005070706000088888850505020055C
:1036B0000707060000888888A8A8D8880507070695
:1036C0000000888850205088880507070600008879
:1036D000885020202020050707060000F808102049
:1036E0004080F8030707060100E08080808080E0CA
:1036F0000507070600008080402010080803070720
:10370000060100E02020202020E00503030600043D
:103710002050880501010600FFF802020206020699
:1037200080400505050600007008788878050707C1
:103730000600008080B0C888C8B0050505060000F6
:103740007088808870050707060000080868988858
:1037500098680505050600007088F8807005070761
:10376000060000304840F04040400507070600FED4
:10377000788888780888700507070600008080B080
:10378000C88888880307070601004000C040404001
:10379000E00409090601FE1000301010109090603E
:1037A00005070706000080808890E09088030707DF
:1037B000060100C04040404040E00505050600000D
:1037C000D0A8A8A888050505060000B0C888888884
:1037D0000505050600007088888870050707060043
:1037E000FEB0C888C8B080800507070600FE68984C
:1037F0008898680808050505060000B0C880808024
:1038000005050506000070807008F0050707060032
:10381000004040F04040483005050506000088881B
:103820008898680505050600008888505020050521
:10383000050600008888A8A8500505050600008830
:10384000502050880507070600FE88889868088879
:1038500070050505060000F8102040F8040707066B
:103860000100304020C020403001070706020080E0
:10387000808080808080040707060100C0204030DF
:103880004020C005030306000448A8900000000182
:103890000000000000010000000000010000000026
:1038A0000001000000000001000000000001000015
:1038B0000000000100000000000100000000000105
:1038C00000000000000100000000000100000000F6
:1038D00000010000000000010000000000010000E5
:1038E00000000001000000000001000000000001D5
:1038F00000000000000100000000000100000000C6
:1039000000010000000000010000000000010000B4
:1039100000000001000000000001000000000001A4
:103920000000000000010000000000010000000095
:103930000001000000000001000000000001000084
:103940000000000100000000000100000000000174
:1039500000000000000600000107070602008000CA
:1039600080808080800507070600FF2078A0A0A047
:103970007820050707060000304840E04048B005C1
:10398000050506000088705070880508080600FFCD
:1039900088885020F8202020010707060200808038
:1039A00080008080800508080600FF7080E0904855
:1039B000380870030101060107A00507070600008B
:1039C0007088A8C8A888700406060601017090B027
:1039D0005000F00605050600002448904824040223
:1039E00002060102F010040101060103F0050707B9
:1039F0000600007088E8C8C8887005010106000745
:103A0000F803030306010440A04005060606000073
:103A10002020F82020F804050506010360902040CE
:103A2000F0040505060103E0106010E00202020642
:103A3000020640800506060600FF888888C8B08018
:103A400005070706000078E8E86828282801010132
:103A5000060203800202020602FE408003050506FC
:103A6000010340C04040E00406060601016090905A
:103A70006000F006050506000090482448900609FD
:103A8000090600FF40C04040E40C143C040609094C
:103A90000600FF40C04040E81404081C0509090660
:103AA00000FFC0204020C818287808050707060036
:103AB00000200020204088700508080600004020F3
:103AC000708888F88888050808060000102070882B
:103AD00088F888880508080600002050708888F853
:103AE000888805080806000048B0708888F888882B
:103AF0000508080600005000708888F888880508C6
:103B0000080600002050708888F888880607070695
:103B100000003C50909CF0909C0509090600FE7046
:103B2000888080808870204005080806000040F8E2
:103B30008080F08080F805080806000010F880807A
:103B4000F08080F805080806000020F88080F080EA
:103B500080F805080806000050F88080F08080F8A2
:103B60000308080601008040E040404040E00308B0
:103B7000080601002040E040404040E003080806FD
:103B8000010040A0E040404040E00308080601007A
:103B9000A000E040404040E0050707060000F04874
:103BA00048E84848F0050808060000285088C8A8DA
:103BB0009888880508080600004020708888888852
:103BC0007005080806000010207088888888700535
:103BD000080806000020507088888888700508084A
:103BE000060000285070888888887005080806003C
:103BF00000500070888888887005050506000088D8
:103C000050205088050707060000709898A8C8C87B
:103C1000700508080600004020888888888870059C
:103C20000808060000102088888888887005080821
:103C30000600002050008888888870050808060063
:103C400000500088888888887005080806000010E1
:103C50002088885020202005070706000080F08873
:103C6000F0808080050707060000708890A090888B
:103C7000B005080806000040200070087888780524
:103C800008080600001020007008788878050808E9
:103C900006000020500070087888780508080600A3
:103CA0000028500070087888780507070600005043
:103CB00000700878887805080806000020502070F9
:103CC0000878887806050506000078147C907C0545
:103CD00007070600FE7088808870204005080806E7
:103CE00000004020007088F8807005080806000079
:103CF0001020007088F88070050808060000205029
:103D0000007088F880700507070600005000708872
:103D1000F88070030808060100804000C040404061
:103D2000E0030808060100408000C0404040E00376
:103D3000080806010040A000C0404040E0060A0A12
:103D40000600FEA4A800FC8480808084FC060A0A89
:103D50000600FE549400FC8404040484FC05080856
:103D6000060000285000B0C88888880508080600AA
:103D7000004020007088888870040A0A0602FE301D
:103D8000408090909090909090040A0A0600FEC0A7
:103D900020109090909090909006070706000144A4
:103DA0008C8C8480403C06070706000188C4C484CC
:103DB0000408F00505050600012000F800200508AC
:103DC0000806000040F0C8888898781005080806A2
:103DD0000000E0F88888888888F805050506000155
:103DE0002030F830200508080600002070F8202058
:103DF0002020E00509090600FF2070A8A8B88888DF
:103E000050200509090600FFE080C0B0A8A83028AE
:103E1000280509090600FFF8A88888888888A8F876
:103E2000050A0A0600FE205050505088A8A8887045
:103E3000A800AC0011241FBECFEFD1E2DEBFCDBF82
:103E400000E00CBF14E0A0E0B2E0E4E9FCE502E031
:103E50000BBF02C007900D92AA35B107D9F724E134
:103E6000AAE5B4E001C01D92AD3BB207E1F71FE146
:103E7000C9E1DFE100E006C021970109802FFE01C2
:103E80000F946C2DC831D10780E00807A9F70F9473
:103E9000FA180D94392E0C9400002FB7F8949091D5
:103EA00005019B7F909305012FBF87FD8FC0A398CD
:103EB0002FB7F894909105019460909305012FBF5E
:103EC0002FB7F894909105019B7F909305012FBF28
:103ED00086FD8AC0A3982FB7F8949091050194604D
:103EE000909305012FBF2FB7F894909105019B7F08
:103EF000909305012FBF85FD75C0A3982FB7F89447
:103F0000909105019460909305012FBF2FB7F8940D
:103F1000909105019B7F909305012FBF84FD60C0A8
:103F2000A3982FB7F89490910501946090930501A0
:103F30002FBF2FB7F894909105019B7F90930501B7
:103F40002FBF83FD4BC0A3982FB7F8949091050124
:103F50009460909305012FBF2FB7F89490910501BD
:103F60009B7F909305012FBF82FD36C0A3982FB78A
:103F7000F894909105019460909305012FBF2FB79D
:103F8000F894909105019B7F909305012FBF81FDCF
:103F900021C0A3982FB7F894909105019460909355
:103FA00005012FBF2FB7F894909105019B7F909347
:103FB00005012FBF80FD0CC0A3989FB7F894809196
:103FC00005018460809305019FBF0895A39A70CF77
:103FD000A39AF3CFA39ADECFA39AC9CFA39AB4CF63
:103FE000A39A9FCFA39A8ACFA39A75CF1092190B49
:103FF0001092180B10924C0A10924B0A10923A0A27
:104000009FB7F894E2E0F1E080818F7B80839FBFCF
:1040100010921B0B10921A0B10923B0A9FB7F89448
:1040200080818F7E80839FBF10924C0A10924B0A32
:104030001092380A7598089520916A0230916B02A7
:1040400040916C0250916D0260E070E08CE593E469
:104050000F94AA2A60930B0B70930C0B80930D0B9B
:1040600090930E0B20916602309167024091680296
:104070005091690260E070E08CE593E40F94AA2A05
:104080006093030B7093040B8093050B9093060BC6
:1040900008958F929F92AF92BF92EF92FF920F93EB
:1040A0001F93CF93DF93CDE8DAE08BE9E82E8FE022
:1040B000F82E01EC14E06991799189919991F701B9
:1040C00081909190A190B1907F010F947026A501ED
:1040D00094010F94B0220F94172BF8016193719300
:1040E000819391938F01FAE0CD39DF0721F7DF91BA
:1040F000CF911F910F91FF90EF90BF90AF909F9045
:104100008F900895CF92DF92EF92FF92CF93DF933B
:10411000EC01C0907A04D0907B04E0907C04F09095
:104120007D04A7019601688179818A819B810F9422
:104130006C2687FF04C0C882D982EA82FB82C090C5
:104140007E04D0907F04E0908004F0908104A70169
:1041500096016C817D818E819F810F946C2687FFF3
:1041600004C0CC82DD82EE82FF82C0908204D090B7
:104170008304E0908404F0908504A701960168858B
:1041800079858A859B850F946C2687FF04C0C88635
:10419000D986EA86FB86C0900202D0900302E090A6
:1041A0000402F0900502A7019601688179818A8155
:1041B0009B810F94F92B181624F4C882D982EA82C5
:1041C000FB82C0900602D0900702E0900802F090B7
:1041D0000902A70196016C817D818E819F810F94D8
:1041E000F92B181624F4CC82DD82EE82FF82C09077
:1041F0000A02D0900B02E0900C02F0900D02A70191
:104200009601688579858A859B850F94F92B181608
:1042100024F4C886D986EA86FB86DF91CF91FF9089
:10422000EF90DF90CF900895CF92DF92EF92FF92C0
:104230000F931F93CF93DF93EC01CC0FDD1FCC0FB7
:10424000DD1FFE01E350FC4F2591359145915491BE
:10425000FE01ED59FB4FC080D180E280F3808E01DA
:104260000E59104FC701B6010F94CE29F801608393
:10427000718382839383FE01EF50FC4F259135912A
:10428000459154918E0106581B4FC701B6010F94FA
:10429000CE29F8016083718382839383FE01EB5101
:1042A000FC4F2591359145915491CE5FDD4FC7016B
:1042B000B6010F94CE29688379838A839B83DF912B
:1042C000CF911F910F91FF90EF90DF90CF900895C5
:1042D000089590E080E00895CF92DF92EF92FF92F0
:1042E0000F931F93CF93DF936B01E9014A3009F4D9
:1042F000C1C6453109F0AAC6DB011296ED91FC91C9
:1043000092810680F781E02DA49AC8E2D0E021973F
:10431000F1F7092F079500270795192F1295110F0F
:10432000110F107CD92FD295DD0FD07EC92FC295E9
:10433000C07FBF017E5F48E250E02FB7F8948091C4
:1043400005018B7F809305012FBFA39A2FB7F894A7
:10435000809105018460809305012FBF2FB7F894E9
:10436000809105018B7F809305012FBFA39A2FB702
:10437000F894809105018460809305012FBF2FB7C9
:10438000F894809105018B7F809305012FBFA39A3C
:104390002FB7F894809105018460809305012FBFA9
:1043A0002FB7F894809105018B7F809305012FBF73
:1043B000A39A2FB7F894809105018460809305013A
:1043C0002FBF2FB7F894809105018B7F8093050153
:1043D0002FBFA39A2FB7F894809105018460809332
:1043E00005012FBF2FB7F894809105018B7F809333
:1043F00005012FBFA3982FB7F89480910501846021
:10440000809305012FBF2FB7F894809105018B7F12
:10441000809305012FBFA3982FB7F89480910501D1
:104420008460809305012FBF2FB7F8948091050118
:104430008B7F809305012FBFA3982FB7F8948091AD
:1044400005018460809305012FBFDA011197F1F710
:10445000903208F022C42FB7F894809105018B7F29
:10446000809305012FBFA39A2FB7F894809105017F
:104470008460809305012FBF2FB7F89480910501C8
:104480008B7F809305012FBFA3982FB7F89480915D
:1044900005018460809305012FBF2FB7F8948091A8
:1044A00005018B7F809305012FBFA3982FB7F89448
:1044B000809105018460809305012FBF2FB7F89488
:1044C000809105018B7F809305012FBF94FDA6C5C8
:1044D000A3982FB7F894809105018460809305011B
:1044E0002FBF2FB7F894809105018B7F8093050132
:1044F0002FBFA3982FB7F894809105018460809313
:1045000005012FBF2FB7F894809105018B7F809311
:1045100005012FBFA3982FB7F894809105018460FF
:10452000809305012FBF2FB7F894809105018B7FF1
:10453000809305012FBFA3982FB7F89480910501B0
:104540008460809305012FBF2FB7F89480910501F7
:104550008B7F809305012FBFA3982FB7F89480918C
:1045600005018460809305012FBF2FB7F8948091D7
:1045700005018B7F809305012FBFC7FD65C5A398FB
:104580002FB7F894809105018460809305012FBFB7
:104590002FB7F894809105018B7F809305012FBF81
:1045A000D7FD50C5A3982FB7F8948091050184607A
:1045B000809305012FBF2FB7F894809105018B7F61
:1045C000809305012FBF17FD3BC5A3982FB7F89423
:1045D000809105018460809305012FBF2FB7F89467
:1045E000809105018B7F809305012FBF07FD26C5B4
:1045F000A3982FB7F89480910501846080930501FA
:104600002FBF2FB7F894809105018B7F8093050110
:104610002FBFA3982FB7F8948091050184608093F1
:1046200005012FBF2FB7F894809105018B7F8093F0
:1046300005012FBFA3982FB7F894809105018460DE
:10464000809305012FBF2FB7F894809105018B7FD0
:10465000809305012FBFA3982FB7F894809105018F
:104660008460809305012FBF2FB7F89480910501D6
:104670008B7F809305012FBFA3982FB7F89480916B
:1046800005018460809305012FBFDA011197F1F7CE
:104690002FB7F894809105018B7F809305012FBF80
:1046A000A39A2FB7F8948091050184608093050147
:1046B0002FBF2FB7F894809105018B7F8093050160
:1046C0002FBFA3982FB7F894809105018460809341
:1046D00005012FBF2FB7F894809105018B7F809340
:1046E00005012FBFA3982FB7F8948091050184602E
:1046F000809305012FBF2FB7F894809105018B7F20
:10470000809305012FBFA3982FB7F89480910501DE
:104710008460809305012FBF2FB7F8948091050125
:104720008B7F809305012FBFA3982FB7F8948091BA
:1047300005018460809305012FBF2FB7F894809105
:1047400005018B7F809305012FBFA3982FB7F894A5
:10475000809105018460809305012FBF2FB7F894E5
:10476000809105018B7F809305012FBFA3982FB700
:10477000F894809105018460809305012FBF2FB7C5
:10478000F894809105018B7F809305012FBFA3983A
:104790002FB7F894809105018460809305012FBFA5
:1047A0002FB7F894809105018B7F809305012FBF6F
:1047B000A3982FB7F8948091050184608093050138
:1047C0002FBF2FB7F894809105018B7F809305014F
:1047D0002FBFA3982FB7F894809105018460809330
:1047E00005012FBF2FB7F894809105018B7F80932F
:1047F00005012FBFA3982FB7F8948091050184601D
:10480000809305012FBF2FB7F894809105018B7F0E
:10481000809305012FBFA3982FB7F89480910501CD
:104820008460809305012FBF2FB7F8948091050114
:104830008B7F809305012FBFA3982FB7F8948091A9
:1048400005018460809305012FBF2FB7F8948091F4
:1048500005018B7F809305012FBFA3982FB7F89494
:10486000809105018460809305012FBF2FB7F894D4
:10487000809105018B7F809305012FBFA3982FB7EF
:10488000F894809105018460809305012FBF2FB7B4
:10489000F894809105018B7F809305012FBFA39829
:1048A0002FB7F894809105018460809305012FBF94
:1048B000DA011197F1F72FB7F894809105018B7FFA
:1048C000809305012FBFA39A2FB7F894809105011B
:1048D0008460809305012FBF2FB7F8948091050164
:1048E0008B7F809305012FBFA39A2FB7F8948091F7
:1048F00005018460809305012FBF2FB7F894809144
:1049000005018B7F809305012FBFA39A2FB7F894E1
:10491000809105018460809305012FBF2FB7F89423
:10492000809105018B7F809305012FBFA39A2FB73C
:10493000F894809105018460809305012FBF2FB703
:10494000F894809105018B7F809305012FBFA39A76
:104950002FB7F894809105018460809305012FBFE3
:104960002FB7F894809105018B7F809305012FBFAD
:10497000A3982FB7F8948091050184608093050176
:104980002FBF2FB7F894809105018B7F809305018D
:104990002FBFA39A2FB7F89480910501846080936C
:1049A00005012FBF2FB7F894809105018B7F80936D
:1049B00005012FBFA3982FB7F8948091050184605B
:1049C000809305012FBFDA011197F1F79F01205F56
:1049D0003F4F28C1A398EFB6F894F0900501689472
:1049E000F2F8F0920501EFBEEFB6F894F0900501F1
:1049F000E894F2F8F0920501EFBE86FD2EC1A3986F
:104A0000EFB6F894F09005016894F2F8F092050181
:104A1000EFBEEFB6F894F0900501E894F2F8F0924A
:104A20000501EFBE85FD17C1A398EFB6F894F0908D
:104A300005016894F2F8F0920501EFBEEFB6F89424
:104A4000F0900501E894F2F8F0920501EFBE84FDC4
:104A500000C1A398FFB6F89480910501846080930B
:104A60000501FFBEFFB6F894809105018B7F80930E
:104A70000501FFBEA398FFB6F894809105018460FC
:104A800080930501FFBEFFB6F894809105018B7FEE
:104A900080930501FFBEA398FFB6F89480910501AD
:104AA000846080930501FFBEFFB6F89480910501F4
:104AB0008B7F80930501FFBEA398FFB6F894809189
:104AC0000501846080930501FFBEFFB6F8948091D4
:104AD00005018B7F80930501FFBEA398FFB6F89474
:104AE00080910501846080930501FFBE8081EFB64F
:104AF000F894F0900501E894F2F8F0920501EFBE09
:104B000083FDA5C0A398EFB6F894F09005016894D2
:104B1000F2F8F0920501EFBEEFB6F894F0900501BF
:104B2000E894F2F8F0920501EFBE82FD8EC0A398E2
:104B3000EFB6F894F09005016894F2F8F092050150
:104B4000EFBEEFB6F894F0900501E894F2F8F09219
:104B50000501EFBE81FD77C0A398EFB6F894F09001
:104B600005016894F2F8F0920501EFBEEFB6F894F3
:104B7000F0900501E894F2F8F0920501EFBE80FD97
:104B800060C0A398FFB6F89480910501846080937B
:104B90000501FFBEFFB6F894809105018B7F8093DD
:104BA0000501FFBEA398FFB6F894809105018460CB
:104BB00080930501FFBEFFB6F894809105018B7FBD
:104BC00080930501FFBEA398FFB6F894809105017C
:104BD000846080930501FFBEFFB6F89480910501C3
:104BE0008B7F80930501FFBEA398FFB6F894809158
:104BF0000501846080930501FFBEFFB6F8948091A3
:104C000005018B7F80930501FFBEA398FFB6F89442
:104C100080910501846080930501FFBE3196E21703
:104C2000F307E9F08081807FEFB6F894F0900501FA
:104C3000E894F2F8F0920501EFBE87FFCBCEA39A7D
:104C4000CACEA39A9FCFA39A88CFA39A71CFA39AD3
:104C50005ACFA39AFFCEA39AE8CEA39AD1CEDA0177
:104C60001197F1F79F5F0058105CD05EC05F6E1720
:104C70007F0709F062CBA498F601C281D381CE01EF
:104C80000F9422078111DBC7DF91CF911F910F9104
:104C9000FF90EF90DF90CF90089580EE890F80779E
:104CA00080683FB7F894209105012B7F2093050180
:104CB0003FBFA39A3FB7F894209105012460209349
:104CC00005013FBF3FB7F894209105012B7F20934A
:104CD00005013FBF86FDB0C1A3983FB7F89420916E
:104CE00005012460209305013FBF3FB7F894209150
:104CF00005012B7F209305013FBF85FD9BC1A39834
:104D00003FB7F894209105012460209305013FBF2F
:104D10003FB7F894209105012B7F209305013FBFF9
:104D200084FD86C1A3982FB7F89480910501846013
:104D3000809305012FBF2FB7F894809105018B7FD9
:104D4000809305012FBFA3982FB7F8948091050198
:104D50008460809305012FBF2FB7F89480910501DF
:104D60008B7F809305012FBFA3982FB7F894809174
:104D700005018460809305012FBF2FB7F8948091BF
:104D800005018B7F809305012FBFA3982FB7F8945F
:104D9000809105018460809305012FBF2FB7F8949F
:104DA000809105018B7F809305012FBFA3982FB7BA
:104DB000F894809105018460809305012FBFA92F8D
:104DC000A052BB0B9D0122953295307F3227207F68
:104DD0003227FFB6F894809105018B7F80930501FF
:104DE000FFBE27FD23C1A398FFB6F894809105016B
:104DF000846080930501FFBEFFB6F89480910501A1
:104E00008B7F80930501FFBE26FD0EC1A398FFB6E0
:104E1000F89480910501846080930501FFBEFFB680
:104E2000F894809105018B7F80930501FFBE25FDDD
:104E3000F9C0A3983FB7F8948091050184608093EE
:104E400005013FBF3FB7F894809105018B7F8093A8
:104E500005013FBF24FDE4C0A3982FB7F8948091CB
:104E600005018460809305012FBF2FB7F8948091CE
:104E700005018B7F809305012FBFA3982FB7F8946E
:104E8000809105018460809305012FBF2FB7F894AE
:104E9000809105018B7F809305012FBFA3982FB7C9
:104EA000F894809105018460809305012FBF2FB78E
:104EB000F894809105018B7F809305012FBFA39803
:104EC0002FB7F894809105018460809305012FBF6E
:104ED0002FB7F894809105018B7F809305012FBF38
:104EE000A3982FB7F8948091050184608093050101
:104EF0002FBFDA011197F1F72FB7F89480910501D0
:104F00008B7F809305012FBFA39A2FB7F8948091D0
:104F100005018460809305012FBF2FB7F89480911D
:104F200005018B7F809305012FBFA3982FB7F894BD
:104F3000809105018460809305012FBF2FB7F894FD
:104F4000809105018B7F809305012FBFA3982FB718
:104F5000F894809105018460809305012FBF2FB7DD
:104F6000F894809105018B7F809305012FBFA39852
:104F70002FB7F894809105018460809305012FBFBD
:104F80002FB7F894809105018B7F809305012FBF87
:104F9000A3982FB7F8948091050184608093050150
:104FA0002FBF2FB7F894809105018B7F8093050167
:104FB0002FBFA3982FB7F894809105018460809348
:104FC00005012FBF2FB7F894809105018B7F809347
:104FD00005012FBFA3982FB7F89480910501846035
:104FE000809305012FBF2FB7F894809105018B7F27
:104FF000809305012FBFA3982FB7F89480910501E6
:105000008460809305012FBF2FB7F894809105012C
:105010008B7F809305012FBFA39ACBCBA39A59CA4C
:10502000A39A1BCFA39A06CFA39AF1CEA39ADCCE64
:10503000A39A79CEA39A64CEA39A4FCEA39AD9CA43
:10504000A39AC4CAA39AAFCAA39A9ACADB011296BA
:105050000D911C91423309F460C608F44FC64634E2
:1050600009F448C6473409F441C64B3309F4F3C583
:1050700081E00ACE9C9AA4989B9AA39880910401FF
:105080008460809304019FB7F89480910501846047
:10509000809305019FBFA49A88E290E00197F1F701
:1050A0008AE590E0CEE9DFE0FE013197F1F7019764
:1050B000D9F79FB7F894809105018B7F8093050104
:1050C0009FBFA39A9FB7F894809105018460809355
:1050D00005019FBF9FB7F894809105018B7F809356
:1050E00005019FBFA39A9FB7F89480910501846042
:1050F000809305019FBF9FB7F894809105018B7F36
:10510000809305019FBFA39A9FB7F89480910501F2
:105110008460809305019FBF9FB7F894809105013B
:105120008B7F809305019FBFA39A9FB7F8948091CE
:1051300005018460809305019FBF9FB7F89480911B
:1051400005018B7F809305019FBFA39A9FB7F894B9
:10515000809105018460809305019FBF9FB7F894FB
:10516000809105018B7F809305019FBFA3989FB716
:10517000F894809105018460809305019FBF9FB7DB
:10518000F894809105018B7F809305019FBFA398C0
:105190009FB7F894809105018460809305019FBFBB
:1051A0009FB7F894809105018B7F809305019FBF85
:1051B000A3989FB7F89480910501846080930501BE
:1051C0009FBF08E210E0C8010197F1F70E9479FE45
:1051D0009FB7F894809105018B7F809305019FBF55
:1051E000A39A9FB7F894809105018460809305018C
:1051F0009FBF9FB7F894809105018B7F8093050135
:105200009FBFA3989FB7F894809105018460809315
:1052100005019FBF9FB7F894809105018B7F809314
:1052200005019FBFA3989FB7F89480910501846002
:10523000809305019FBF9FB7F894809105018B7FF4
:10524000809305019FBFA3989FB7F89480910501B3
:105250008460809305019FBF9FB7F89480910501FA
:105260008B7F809305019FBFA3989FB7F89480918F
:1052700005018460809305019FBF9FB7F8948091DA
:1052800005018B7F809305019FBFA3989FB7F8947A
:10529000809105018460809305019FBF9FB7F894BA
:1052A000809105018B7F809305019FBFA3989FB7D5
:1052B000F894809105018460809305019FBF9FB79A
:1052C000F894809105018B7F809305019FBFA3987F
:1052D0009FB7F894809105018460809305019FBF7A
:1052E000C8010197F1F70E9479FE80E10E944D1FED
:1052F000C8010197F1F7CE010197F1F7CE010197AF
:10530000F1F7CE010197F1F7CE010197F1F7CE0148
:105310000197F1F7CE010197F1F7CE010197F1F76F
:10532000CE010197F1F7CE010197F1F72197F1F73F
:1053300080E30E944D1F80EE0E944D1FC80101971F
:10534000F1F730E040E050E020E0C8E2D0E09FB765
:10535000F894809105018B7F809305019FBFA39AEC
:105360009FB7F894809105018460809305019FBFE9
:105370009FB7F894809105018B7F809305019FBFB3
:10538000A3989FB7F89480910501846080930501EC
:105390009FBF9FB7F894809105018B7F8093050193
:1053A0009FBFA3989FB7F894809105018460809374
:1053B00005019FBF9FB7F894809105018B7F809373
:1053C00005019FBF24FD39C4A3989FB7F89480912D
:1053D00005018460809305019FBF9FB7F894809179
:1053E00005018B7F809305019FBFA3989FB7F89419
:1053F000809105018460809305019FBF9FB7F89459
:10540000809105018B7F809305019FBFA3989FB773
:10541000F894809105018460809305019FBF9FB738
:10542000F894809105018B7F809305019FBFA3981D
:105430009FB7F894809105018460809305019FBF18
:105440009FB7F894809105018B7F809305019FBFE2
:10545000A3989FB7F894809105018460809305011B
:105460009FBF9FB7F894809105018B7F80930501C2
:105470009FBF37FDE0C3A3989FB7F89480910501C3
:105480008460809305019FBF9FB7F89480910501C8
:105490008B7F809305019FBF36FDCBC3A3989FB739
:1054A000F894809105018460809305019FBF9FB7A8
:1054B000F894809105018B7F809305019FBF47FD84
:1054C000B6C3A3989FB7F894809105018460809338
:1054D00005019FBF9FB7F894809105018B7F809352
:1054E00005019FBF57FDA1C3A3989FB7F894809172
:1054F00005018460809305019FBF9FB7F894809158
:1055000005018B7F809305019FBFA3989FB7F894F7
:10551000809105018460809305019FBF9FB7F89437
:10552000809105018B7F809305019FBFA3989FB752
:10553000F894809105018460809305019FBF9FB717
:10554000F894809105018B7F809305019FBFA398FC
:105550009FB7F894809105018460809305019FBFF7
:105560009FB7F894809105018B7F809305019FBFC1
:10557000A3989FB7F89480910501846080930501FA
:105580009FBFCE010197F1F79FB7F8948091050175
:105590008B7F809305019FBFA39A9FB7F89480915A
:1055A00005018460809305019FBF9FB7F8948091A7
:1055B00005018B7F809305019FBFA3989FB7F89447
:1055C000809105018460809305019FBF9FB7F89487
:1055D000809105018B7F809305019FBFA3989FB7A2
:1055E000F894809105018460809305019FBF9FB767
:1055F000F894809105018B7F809305019FBFA3984C
:105600009FB7F894809105018460809305019FBF46
:105610009FB7F894809105018B7F809305019FBF10
:10562000A3989FB7F8948091050184608093050149
:105630009FBF9FB7F894809105018B7F80930501F0
:105640009FBFA3989FB7F8948091050184608093D1
:1056500005019FBF9FB7F894809105018B7F8093D0
:1056600005019FBFA3989FB7F894809105018460BE
:10567000809305019FBF9FB7F894809105018B7FB0
:10568000809305019FBFA3989FB7F894809105016F
:105690008460809305019FBF9FB7F89480910501B6
:1056A0008B7F809305019FBFA3989FB7F89480914B
:1056B00005018460809305019FBF9FB7F894809196
:1056C00005018B7F809305019FBFA3989FB7F89436
:1056D000809105018460809305019FBF9FB7F89476
:1056E000809105018B7F809305019FBFA3989FB791
:1056F000F894809105018460809305019FBF9FB756
:10570000F894809105018B7F809305019FBFA3983A
:105710009FB7F894809105018460809305019FBF35
:105720009FB7F894809105018B7F809305019FBFFF
:10573000A3989FB7F8948091050184608093050138
:105740009FBF9FB7F894809105018B7F80930501DF
:105750009FBFA3989FB7F8948091050184608093C0
:1057600005019FBF9FB7F894809105018B7F8093BF
:1057700005019FBFA3989FB7F894809105018460AD
:10578000809305019FBF9FB7F894809105018B7F9F
:10579000809305019FBFA3989FB7F894809105015E
:1057A0008460809305019FBFCE010197F1F79FB7F9
:1057B000F894809105018B7F809305019FBFA39A88
:1057C0009FB7F894809105018460809305019FBF85
:1057D0009FB7F894809105018B7F809305019FBF4F
:1057E000A39A9FB7F8948091050184608093050186
:1057F0009FBF9FB7F894809105018B7F809305012F
:105800009FBFA39A9FB7F89480910501846080930D
:1058100005019FBF9FB7F894809105018B7F80930E
:1058200005019FBFA39A9FB7F894809105018460FA
:10583000809305019FBF9FB7F894809105018B7FEE
:10584000809305019FBFA39A9FB7F89480910501AB
:105850008460809305019FBF9FB7F89480910501F4
:105860008B7F809305019FBFA3989FB7F894809189
:1058700005018460809305019FBF9FB7F8948091D4
:1058800005018B7F809305019FBFA39A9FB7F89472
:10589000809105018460809305019FBF9FB7F894B4
:1058A000809105018B7F809305019FBFA3989FB7CF
:1058B000F894809105018460809305019FBFCE011B
:1058C0000197F1F790E26FB7F894809105018B7F13
:1058D000809305016FBFA3986FB7F894809105017D
:1058E0008460809305016FBF6FB7F89480910501C4
:1058F0008B7F809305016FBFA3986FB7F894809159
:1059000005018460809305016FBF6FB7F8948091A3
:1059100005018B7F809305016FBFA3986FB7F89443
:10592000809105018460809305016FBF6FB7F89483
:10593000809105018B7F809305016FBFA3986FB79E
:10594000F894809105018460809305016FBF6FB763
:10595000F894809105018B7F809305016FBFA39818
:105960006FB7F894809105018460809305016FBF43
:105970006FB7F894809105018B7F809305016FBF0D
:10598000A3986FB7F8948091050184608093050116
:105990006FBF6FB7F894809105018B7F80930501ED
:1059A0006FBFA3986FB7F8948091050184608093CE
:1059B00005016FBF6FB7F894809105018B7F8093CD
:1059C00005016FBFA3986FB7F894809105018460BB
:1059D000809305016FBF6FB7F894809105018B7FAD
:1059E000809305016FBFA3986FB7F894809105016C
:1059F0008460809305016FBF6FB7F89480910501B3
:105A00008B7F809305016FBFA3986FB7F894809147
:105A100005018460809305016FBF6FB7F894809192
:105A200005018B7F809305016FBFA3986FB7F89432
:105A3000809105018460809305016FBF6FB7F89472
:105A4000809105018B7F809305016FBFA3986FB78D
:105A5000F894809105018460809305016FBF6FB752
:105A6000F894809105018B7F809305016FBFA39807
:105A70006FB7F894809105018460809305016FBF32
:105A80006FB7F894809105018B7F809305016FBFFC
:105A9000A3986FB7F8948091050184608093050105
:105AA0006FBF6FB7F894809105018B7F80930501DC
:105AB0006FBFA3986FB7F8948091050184608093BD
:105AC00005016FBF6FB7F894809105018B7F8093BC
:105AD00005016FBFA3986FB7F894809105018460AA
